{
	"defi/contracts/DeFiLending.sol": {
		"DeFiLending": {
			"abi": [
				{
					"anonymous": false,
					"inputs": [
						{
							"indexed": true,
							"internalType": "address",
							"name": "user",
							"type": "address"
						},
						{
							"indexed": false,
							"internalType": "uint256",
							"name": "amount",
							"type": "uint256"
						}
					],
					"name": "Deposit",
					"type": "event"
				},
				{
					"anonymous": false,
					"inputs": [
						{
							"indexed": true,
							"internalType": "uint256",
							"name": "loanId",
							"type": "uint256"
						},
						{
							"indexed": true,
							"internalType": "address",
							"name": "borrower",
							"type": "address"
						},
						{
							"indexed": false,
							"internalType": "uint256",
							"name": "amount",
							"type": "uint256"
						},
						{
							"indexed": false,
							"internalType": "uint256",
							"name": "interest",
							"type": "uint256"
						},
						{
							"indexed": false,
							"internalType": "uint256",
							"name": "dueDate",
							"type": "uint256"
						}
					],
					"name": "LoanCreated",
					"type": "event"
				},
				{
					"anonymous": false,
					"inputs": [
						{
							"indexed": true,
							"internalType": "uint256",
							"name": "loanId",
							"type": "uint256"
						},
						{
							"indexed": true,
							"internalType": "address",
							"name": "borrower",
							"type": "address"
						}
					],
					"name": "LoanRepaid",
					"type": "event"
				},
				{
					"anonymous": false,
					"inputs": [
						{
							"indexed": true,
							"internalType": "address",
							"name": "user",
							"type": "address"
						},
						{
							"indexed": false,
							"internalType": "uint256",
							"name": "amount",
							"type": "uint256"
						}
					],
					"name": "Withdraw",
					"type": "event"
				},
				{
					"inputs": [
						{
							"internalType": "uint256",
							"name": "amount",
							"type": "uint256"
						},
						{
							"internalType": "uint256",
							"name": "interest",
							"type": "uint256"
						},
						{
							"internalType": "uint256",
							"name": "duration",
							"type": "uint256"
						}
					],
					"name": "createLoan",
					"outputs": [],
					"stateMutability": "nonpayable",
					"type": "function"
				},
				{
					"inputs": [],
					"name": "deposit",
					"outputs": [],
					"stateMutability": "payable",
					"type": "function"
				},
				{
					"inputs": [
						{
							"internalType": "address",
							"name": "",
							"type": "address"
						}
					],
					"name": "deposits",
					"outputs": [
						{
							"internalType": "uint256",
							"name": "",
							"type": "uint256"
						}
					],
					"stateMutability": "view",
					"type": "function"
				},
				{
					"inputs": [],
					"name": "loanCounter",
					"outputs": [
						{
							"internalType": "uint256",
							"name": "",
							"type": "uint256"
						}
					],
					"stateMutability": "view",
					"type": "function"
				},
				{
					"inputs": [
						{
							"internalType": "uint256",
							"name": "",
							"type": "uint256"
						}
					],
					"name": "loans",
					"outputs": [
						{
							"internalType": "uint256",
							"name": "amount",
							"type": "uint256"
						},
						{
							"internalType": "address",
							"name": "borrower",
							"type": "address"
						},
						{
							"internalType": "uint256",
							"name": "interest",
							"type": "uint256"
						},
						{
							"internalType": "uint256",
							"name": "dueDate",
							"type": "uint256"
						},
						{
							"internalType": "bool",
							"name": "repaid",
							"type": "bool"
						}
					],
					"stateMutability": "view",
					"type": "function"
				},
				{
					"inputs": [
						{
							"internalType": "uint256",
							"name": "loanId",
							"type": "uint256"
						}
					],
					"name": "repayLoan",
					"outputs": [],
					"stateMutability": "payable",
					"type": "function"
				},
				{
					"inputs": [
						{
							"internalType": "uint256",
							"name": "amount",
							"type": "uint256"
						}
					],
					"name": "withdraw",
					"outputs": [],
					"stateMutability": "nonpayable",
					"type": "function"
				}
			],
			"devdoc": {
				"kind": "dev",
				"methods": {},
				"version": 1
			},
			"evm": {
				"assembly": "    /* \"defi/contracts/DeFiLending.sol\":60:2097  contract DeFiLending {... */\n  mstore(0x40, 0x80)\n  callvalue\n  dup1\n  iszero\n  tag_1\n  jumpi\n  0x00\n  dup1\n  revert\ntag_1:\n  pop\n  dataSize(sub_0)\n  dup1\n  dataOffset(sub_0)\n  0x00\n  codecopy\n  0x00\n  return\nstop\n\nsub_0: assembly {\n        /* \"defi/contracts/DeFiLending.sol\":60:2097  contract DeFiLending {... */\n      mstore(0x40, 0x80)\n      jumpi(tag_1, lt(calldatasize, 0x04))\n      shr(0xe0, calldataload(0x00))\n      dup1\n      0xab7b1c89\n      gt\n      tag_9\n      jumpi\n      dup1\n      0xab7b1c89\n      eq\n      tag_5\n      jumpi\n      dup1\n      0xd0e30db0\n      eq\n      tag_6\n      jumpi\n      dup1\n      0xe1ec3c68\n      eq\n      tag_7\n      jumpi\n      dup1\n      0xfc7e286d\n      eq\n      tag_8\n      jumpi\n      jump(tag_1)\n    tag_9:\n      dup1\n      0x2e1a7d4d\n      eq\n      tag_2\n      jumpi\n      dup1\n      0x34d9289e\n      eq\n      tag_3\n      jumpi\n      dup1\n      0x904b513b\n      eq\n      tag_4\n      jumpi\n    tag_1:\n      0x00\n      dup1\n      revert\n        /* \"defi/contracts/DeFiLending.sol\":829:1084  function withdraw(uint256 amount) public {... */\n    tag_2:\n      callvalue\n      dup1\n      iszero\n      tag_10\n      jumpi\n      0x00\n      dup1\n      revert\n    tag_10:\n      pop\n      tag_11\n      0x04\n      dup1\n      calldatasize\n      sub\n      dup2\n      add\n      swap1\n      tag_12\n      swap2\n      swap1\n      tag_13\n      jump\t// in\n    tag_12:\n      tag_14\n      jump\t// in\n    tag_11:\n      stop\n        /* \"defi/contracts/DeFiLending.sol\":337:363  uint256 public loanCounter */\n    tag_3:\n      callvalue\n      dup1\n      iszero\n      tag_15\n      jumpi\n      0x00\n      dup1\n      revert\n    tag_15:\n      pop\n      tag_16\n      tag_17\n      jump\t// in\n    tag_16:\n      mload(0x40)\n      tag_18\n      swap2\n      swap1\n      tag_19\n      jump\t// in\n    tag_18:\n      mload(0x40)\n      dup1\n      swap2\n      sub\n      swap1\n      return\n        /* \"defi/contracts/DeFiLending.sol\":1092:1644  function createLoan(uint256 amount, uint256 interest, uint256 duration) public {... */\n    tag_4:\n      callvalue\n      dup1\n      iszero\n      tag_20\n      jumpi\n      0x00\n      dup1\n      revert\n    tag_20:\n      pop\n      tag_21\n      0x04\n      dup1\n      calldatasize\n      sub\n      dup2\n      add\n      swap1\n      tag_22\n      swap2\n      swap1\n      tag_23\n      jump\t// in\n    tag_22:\n      tag_24\n      jump\t// in\n    tag_21:\n      stop\n        /* \"defi/contracts/DeFiLending.sol\":1652:2094  function repayLoan(uint256 loanId) public payable {... */\n    tag_5:\n      tag_25\n      0x04\n      dup1\n      calldatasize\n      sub\n      dup2\n      add\n      swap1\n      tag_26\n      swap2\n      swap1\n      tag_13\n      jump\t// in\n    tag_26:\n      tag_27\n      jump\t// in\n    tag_25:\n      stop\n        /* \"defi/contracts/DeFiLending.sol\":689:821  function deposit() public payable {... */\n    tag_6:\n      tag_28\n      tag_29\n      jump\t// in\n    tag_28:\n      stop\n        /* \"defi/contracts/DeFiLending.sol\":293:330  mapping(uint256 => Loan) public loans */\n    tag_7:\n      callvalue\n      dup1\n      iszero\n      tag_30\n      jumpi\n      0x00\n      dup1\n      revert\n    tag_30:\n      pop\n      tag_31\n      0x04\n      dup1\n      calldatasize\n      sub\n      dup2\n      add\n      swap1\n      tag_32\n      swap2\n      swap1\n      tag_13\n      jump\t// in\n    tag_32:\n      tag_33\n      jump\t// in\n    tag_31:\n      mload(0x40)\n      tag_34\n      swap6\n      swap5\n      swap4\n      swap3\n      swap2\n      swap1\n      tag_35\n      jump\t// in\n    tag_34:\n      mload(0x40)\n      dup1\n      swap2\n      sub\n      swap1\n      return\n        /* \"defi/contracts/DeFiLending.sol\":243:286  mapping(address => uint256) public deposits */\n    tag_8:\n      callvalue\n      dup1\n      iszero\n      tag_36\n      jumpi\n      0x00\n      dup1\n      revert\n    tag_36:\n      pop\n      tag_37\n      0x04\n      dup1\n      calldatasize\n      sub\n      dup2\n      add\n      swap1\n      tag_38\n      swap2\n      swap1\n      tag_39\n      jump\t// in\n    tag_38:\n      tag_40\n      jump\t// in\n    tag_37:\n      mload(0x40)\n      tag_41\n      swap2\n      swap1\n      tag_19\n      jump\t// in\n    tag_41:\n      mload(0x40)\n      dup1\n      swap2\n      sub\n      swap1\n      return\n        /* \"defi/contracts/DeFiLending.sol\":829:1084  function withdraw(uint256 amount) public {... */\n    tag_14:\n        /* \"defi/contracts/DeFiLending.sol\":913:919  amount */\n      dup1\n        /* \"defi/contracts/DeFiLending.sol\":889:897  deposits */\n      0x00\n        /* \"defi/contracts/DeFiLending.sol\":889:909  deposits[msg.sender] */\n      dup1\n        /* \"defi/contracts/DeFiLending.sol\":898:908  msg.sender */\n      caller\n        /* \"defi/contracts/DeFiLending.sol\":889:909  deposits[msg.sender] */\n      0xffffffffffffffffffffffffffffffffffffffff\n      and\n      0xffffffffffffffffffffffffffffffffffffffff\n      and\n      dup2\n      mstore\n      0x20\n      add\n      swap1\n      dup2\n      mstore\n      0x20\n      add\n      0x00\n      keccak256\n      sload\n        /* \"defi/contracts/DeFiLending.sol\":889:919  deposits[msg.sender] >= amount */\n      lt\n      iszero\n        /* \"defi/contracts/DeFiLending.sol\":881:944  require(deposits[msg.sender] >= amount, \"Insufficient balance\") */\n      tag_43\n      jumpi\n      mload(0x40)\n      0x08c379a000000000000000000000000000000000000000000000000000000000\n      dup2\n      mstore\n      0x04\n      add\n      tag_44\n      swap1\n      tag_45\n      jump\t// in\n    tag_44:\n      mload(0x40)\n      dup1\n      swap2\n      sub\n      swap1\n      revert\n    tag_43:\n        /* \"defi/contracts/DeFiLending.sol\":979:985  amount */\n      dup1\n        /* \"defi/contracts/DeFiLending.sol\":955:963  deposits */\n      0x00\n        /* \"defi/contracts/DeFiLending.sol\":955:975  deposits[msg.sender] */\n      dup1\n        /* \"defi/contracts/DeFiLending.sol\":964:974  msg.sender */\n      caller\n        /* \"defi/contracts/DeFiLending.sol\":955:975  deposits[msg.sender] */\n      0xffffffffffffffffffffffffffffffffffffffff\n      and\n      0xffffffffffffffffffffffffffffffffffffffff\n      and\n      dup2\n      mstore\n      0x20\n      add\n      swap1\n      dup2\n      mstore\n      0x20\n      add\n      0x00\n      keccak256\n      0x00\n        /* \"defi/contracts/DeFiLending.sol\":955:985  deposits[msg.sender] -= amount */\n      dup3\n      dup3\n      sload\n      tag_46\n      swap2\n      swap1\n      tag_47\n      jump\t// in\n    tag_46:\n      swap3\n      pop\n      pop\n      dup2\n      swap1\n      sstore\n      pop\n        /* \"defi/contracts/DeFiLending.sol\":1004:1014  msg.sender */\n      caller\n        /* \"defi/contracts/DeFiLending.sol\":996:1024  payable(msg.sender).transfer */\n      0xffffffffffffffffffffffffffffffffffffffff\n      and\n        /* \"defi/contracts/DeFiLending.sol\":996:1032  payable(msg.sender).transfer(amount) */\n      0x08fc\n        /* \"defi/contracts/DeFiLending.sol\":1025:1031  amount */\n      dup3\n        /* \"defi/contracts/DeFiLending.sol\":996:1032  payable(msg.sender).transfer(amount) */\n      swap1\n      dup2\n      iszero\n      mul\n      swap1\n      mload(0x40)\n      0x00\n      mload(0x40)\n      dup1\n      dup4\n      sub\n      dup2\n      dup6\n      dup9\n      dup9\n      call\n      swap4\n      pop\n      pop\n      pop\n      pop\n      iszero\n      dup1\n      iszero\n      tag_49\n      jumpi\n      returndatasize\n      0x00\n      dup1\n      returndatacopy\n      revert(0x00, returndatasize)\n    tag_49:\n      pop\n        /* \"defi/contracts/DeFiLending.sol\":1057:1067  msg.sender */\n      caller\n        /* \"defi/contracts/DeFiLending.sol\":1048:1076  Withdraw(msg.sender, amount) */\n      0xffffffffffffffffffffffffffffffffffffffff\n      and\n      0x884edad9ce6fa2440d8a54cc123490eb96d2768479d49ff9c7366125a9424364\n        /* \"defi/contracts/DeFiLending.sol\":1069:1075  amount */\n      dup3\n        /* \"defi/contracts/DeFiLending.sol\":1048:1076  Withdraw(msg.sender, amount) */\n      mload(0x40)\n      tag_50\n      swap2\n      swap1\n      tag_19\n      jump\t// in\n    tag_50:\n      mload(0x40)\n      dup1\n      swap2\n      sub\n      swap1\n      log2\n        /* \"defi/contracts/DeFiLending.sol\":829:1084  function withdraw(uint256 amount) public {... */\n      pop\n      jump\t// out\n        /* \"defi/contracts/DeFiLending.sol\":337:363  uint256 public loanCounter */\n    tag_17:\n      sload(0x02)\n      dup2\n      jump\t// out\n        /* \"defi/contracts/DeFiLending.sol\":1092:1644  function createLoan(uint256 amount, uint256 interest, uint256 duration) public {... */\n    tag_24:\n        /* \"defi/contracts/DeFiLending.sol\":1214:1220  amount */\n      dup3\n        /* \"defi/contracts/DeFiLending.sol\":1190:1198  deposits */\n      0x00\n        /* \"defi/contracts/DeFiLending.sol\":1190:1210  deposits[msg.sender] */\n      dup1\n        /* \"defi/contracts/DeFiLending.sol\":1199:1209  msg.sender */\n      caller\n        /* \"defi/contracts/DeFiLending.sol\":1190:1210  deposits[msg.sender] */\n      0xffffffffffffffffffffffffffffffffffffffff\n      and\n      0xffffffffffffffffffffffffffffffffffffffff\n      and\n      dup2\n      mstore\n      0x20\n      add\n      swap1\n      dup2\n      mstore\n      0x20\n      add\n      0x00\n      keccak256\n      sload\n        /* \"defi/contracts/DeFiLending.sol\":1190:1220  deposits[msg.sender] >= amount */\n      lt\n      iszero\n        /* \"defi/contracts/DeFiLending.sol\":1182:1245  require(deposits[msg.sender] >= amount, \"Insufficient balance\") */\n      tag_52\n      jumpi\n      mload(0x40)\n      0x08c379a000000000000000000000000000000000000000000000000000000000\n      dup2\n      mstore\n      0x04\n      add\n      tag_53\n      swap1\n      tag_45\n      jump\t// in\n    tag_53:\n      mload(0x40)\n      dup1\n      swap2\n      sub\n      swap1\n      revert\n    tag_52:\n        /* \"defi/contracts/DeFiLending.sol\":1280:1286  amount */\n      dup3\n        /* \"defi/contracts/DeFiLending.sol\":1256:1264  deposits */\n      0x00\n        /* \"defi/contracts/DeFiLending.sol\":1256:1276  deposits[msg.sender] */\n      dup1\n        /* \"defi/contracts/DeFiLending.sol\":1265:1275  msg.sender */\n      caller\n        /* \"defi/contracts/DeFiLending.sol\":1256:1276  deposits[msg.sender] */\n      0xffffffffffffffffffffffffffffffffffffffff\n      and\n      0xffffffffffffffffffffffffffffffffffffffff\n      and\n      dup2\n      mstore\n      0x20\n      add\n      swap1\n      dup2\n      mstore\n      0x20\n      add\n      0x00\n      keccak256\n      0x00\n        /* \"defi/contracts/DeFiLending.sol\":1256:1286  deposits[msg.sender] -= amount */\n      dup3\n      dup3\n      sload\n      tag_54\n      swap2\n      swap1\n      tag_47\n      jump\t// in\n    tag_54:\n      swap3\n      pop\n      pop\n      dup2\n      swap1\n      sstore\n      pop\n        /* \"defi/contracts/DeFiLending.sol\":1320:1512  Loan({... */\n      mload(0x40)\n      dup1\n      0xa0\n      add\n      0x40\n      mstore\n      dup1\n        /* \"defi/contracts/DeFiLending.sol\":1348:1354  amount */\n      dup5\n        /* \"defi/contracts/DeFiLending.sol\":1320:1512  Loan({... */\n      dup2\n      mstore\n      0x20\n      add\n        /* \"defi/contracts/DeFiLending.sol\":1379:1389  msg.sender */\n      caller\n        /* \"defi/contracts/DeFiLending.sol\":1320:1512  Loan({... */\n      0xffffffffffffffffffffffffffffffffffffffff\n      and\n      dup2\n      mstore\n      0x20\n      add\n        /* \"defi/contracts/DeFiLending.sol\":1414:1422  interest */\n      dup4\n        /* \"defi/contracts/DeFiLending.sol\":1320:1512  Loan({... */\n      dup2\n      mstore\n      0x20\n      add\n        /* \"defi/contracts/DeFiLending.sol\":1464:1472  duration */\n      dup3\n        /* \"defi/contracts/DeFiLending.sol\":1446:1461  block.timestamp */\n      timestamp\n        /* \"defi/contracts/DeFiLending.sol\":1446:1472  block.timestamp + duration */\n      tag_55\n      swap2\n      swap1\n      tag_56\n      jump\t// in\n    tag_55:\n        /* \"defi/contracts/DeFiLending.sol\":1320:1512  Loan({... */\n      dup2\n      mstore\n      0x20\n      add\n        /* \"defi/contracts/DeFiLending.sol\":1495:1500  false */\n      0x00\n        /* \"defi/contracts/DeFiLending.sol\":1320:1512  Loan({... */\n      iszero\n      iszero\n      dup2\n      mstore\n      pop\n        /* \"defi/contracts/DeFiLending.sol\":1299:1304  loans */\n      0x01\n        /* \"defi/contracts/DeFiLending.sol\":1299:1317  loans[loanCounter] */\n      0x00\n        /* \"defi/contracts/DeFiLending.sol\":1305:1316  loanCounter */\n      sload(0x02)\n        /* \"defi/contracts/DeFiLending.sol\":1299:1317  loans[loanCounter] */\n      dup2\n      mstore\n      0x20\n      add\n      swap1\n      dup2\n      mstore\n      0x20\n      add\n      0x00\n      keccak256\n        /* \"defi/contracts/DeFiLending.sol\":1299:1512  loans[loanCounter] = Loan({... */\n      0x00\n      dup3\n      add\n      mload\n      dup2\n      0x00\n      add\n      sstore\n      0x20\n      dup3\n      add\n      mload\n      dup2\n      0x01\n      add\n      exp(0x0100, 0x00)\n      dup2\n      sload\n      dup2\n      0xffffffffffffffffffffffffffffffffffffffff\n      mul\n      not\n      and\n      swap1\n      dup4\n      0xffffffffffffffffffffffffffffffffffffffff\n      and\n      mul\n      or\n      swap1\n      sstore\n      pop\n      0x40\n      dup3\n      add\n      mload\n      dup2\n      0x02\n      add\n      sstore\n      0x60\n      dup3\n      add\n      mload\n      dup2\n      0x03\n      add\n      sstore\n      0x80\n      dup3\n      add\n      mload\n      dup2\n      0x04\n      add\n      exp(0x0100, 0x00)\n      dup2\n      sload\n      dup2\n      0xff\n      mul\n      not\n      and\n      swap1\n      dup4\n      iszero\n      iszero\n      mul\n      or\n      swap1\n      sstore\n      pop\n      swap1\n      pop\n      pop\n        /* \"defi/contracts/DeFiLending.sol\":1555:1565  msg.sender */\n      caller\n        /* \"defi/contracts/DeFiLending.sol\":1530:1612  LoanCreated(loanCounter, msg.sender, amount, interest, block.timestamp + duration) */\n      0xffffffffffffffffffffffffffffffffffffffff\n      and\n        /* \"defi/contracts/DeFiLending.sol\":1542:1553  loanCounter */\n      sload(0x02)\n        /* \"defi/contracts/DeFiLending.sol\":1530:1612  LoanCreated(loanCounter, msg.sender, amount, interest, block.timestamp + duration) */\n      0xb2cca1719ad611d325136b9c9a4357f412d33694d93c60d4c1b6e922d524cf59\n        /* \"defi/contracts/DeFiLending.sol\":1567:1573  amount */\n      dup6\n        /* \"defi/contracts/DeFiLending.sol\":1575:1583  interest */\n      dup6\n        /* \"defi/contracts/DeFiLending.sol\":1603:1611  duration */\n      dup6\n        /* \"defi/contracts/DeFiLending.sol\":1585:1600  block.timestamp */\n      timestamp\n        /* \"defi/contracts/DeFiLending.sol\":1585:1611  block.timestamp + duration */\n      tag_57\n      swap2\n      swap1\n      tag_56\n      jump\t// in\n    tag_57:\n        /* \"defi/contracts/DeFiLending.sol\":1530:1612  LoanCreated(loanCounter, msg.sender, amount, interest, block.timestamp + duration) */\n      mload(0x40)\n      tag_58\n      swap4\n      swap3\n      swap2\n      swap1\n      tag_59\n      jump\t// in\n    tag_58:\n      mload(0x40)\n      dup1\n      swap2\n      sub\n      swap1\n      log3\n        /* \"defi/contracts/DeFiLending.sol\":1623:1634  loanCounter */\n      0x02\n      0x00\n        /* \"defi/contracts/DeFiLending.sol\":1623:1636  loanCounter++ */\n      dup2\n      sload\n      dup1\n      swap3\n      swap2\n      swap1\n      tag_60\n      swap1\n      tag_61\n      jump\t// in\n    tag_60:\n      swap2\n      swap1\n      pop\n      sstore\n      pop\n        /* \"defi/contracts/DeFiLending.sol\":1092:1644  function createLoan(uint256 amount, uint256 interest, uint256 duration) public {... */\n      pop\n      pop\n      pop\n      jump\t// out\n        /* \"defi/contracts/DeFiLending.sol\":1652:2094  function repayLoan(uint256 loanId) public payable {... */\n    tag_27:\n        /* \"defi/contracts/DeFiLending.sol\":1713:1730  Loan storage loan */\n      0x00\n        /* \"defi/contracts/DeFiLending.sol\":1733:1738  loans */\n      0x01\n        /* \"defi/contracts/DeFiLending.sol\":1733:1746  loans[loanId] */\n      0x00\n        /* \"defi/contracts/DeFiLending.sol\":1739:1745  loanId */\n      dup4\n        /* \"defi/contracts/DeFiLending.sol\":1733:1746  loans[loanId] */\n      dup2\n      mstore\n      0x20\n      add\n      swap1\n      dup2\n      mstore\n      0x20\n      add\n      0x00\n      keccak256\n        /* \"defi/contracts/DeFiLending.sol\":1713:1746  Loan storage loan = loans[loanId] */\n      swap1\n      pop\n        /* \"defi/contracts/DeFiLending.sol\":1779:1783  loan */\n      dup1\n        /* \"defi/contracts/DeFiLending.sol\":1779:1792  loan.borrower */\n      0x01\n      add\n      0x00\n      swap1\n      sload\n      swap1\n      0x0100\n      exp\n      swap1\n      div\n      0xffffffffffffffffffffffffffffffffffffffff\n      and\n        /* \"defi/contracts/DeFiLending.sol\":1765:1792  msg.sender == loan.borrower */\n      0xffffffffffffffffffffffffffffffffffffffff\n      and\n        /* \"defi/contracts/DeFiLending.sol\":1765:1775  msg.sender */\n      caller\n        /* \"defi/contracts/DeFiLending.sol\":1765:1792  msg.sender == loan.borrower */\n      0xffffffffffffffffffffffffffffffffffffffff\n      and\n      eq\n        /* \"defi/contracts/DeFiLending.sol\":1757:1813  require(msg.sender == loan.borrower, \"Not the borrower\") */\n      tag_63\n      jumpi\n      mload(0x40)\n      0x08c379a000000000000000000000000000000000000000000000000000000000\n      dup2\n      mstore\n      0x04\n      add\n      tag_64\n      swap1\n      tag_65\n      jump\t// in\n    tag_64:\n      mload(0x40)\n      dup1\n      swap2\n      sub\n      swap1\n      revert\n    tag_63:\n        /* \"defi/contracts/DeFiLending.sol\":1833:1837  loan */\n      dup1\n        /* \"defi/contracts/DeFiLending.sol\":1833:1844  loan.repaid */\n      0x04\n      add\n      0x00\n      swap1\n      sload\n      swap1\n      0x0100\n      exp\n      swap1\n      div\n      0xff\n      and\n        /* \"defi/contracts/DeFiLending.sol\":1832:1844  !loan.repaid */\n      iszero\n        /* \"defi/contracts/DeFiLending.sol\":1824:1868  require(!loan.repaid, \"Loan already repaid\") */\n      tag_66\n      jumpi\n      mload(0x40)\n      0x08c379a000000000000000000000000000000000000000000000000000000000\n      dup2\n      mstore\n      0x04\n      add\n      tag_67\n      swap1\n      tag_68\n      jump\t// in\n    tag_67:\n      mload(0x40)\n      dup1\n      swap2\n      sub\n      swap1\n      revert\n    tag_66:\n        /* \"defi/contracts/DeFiLending.sol\":1914:1918  loan */\n      dup1\n        /* \"defi/contracts/DeFiLending.sol\":1914:1927  loan.interest */\n      0x02\n      add\n      sload\n        /* \"defi/contracts/DeFiLending.sol\":1900:1904  loan */\n      dup2\n        /* \"defi/contracts/DeFiLending.sol\":1900:1911  loan.amount */\n      0x00\n      add\n      sload\n        /* \"defi/contracts/DeFiLending.sol\":1900:1927  loan.amount + loan.interest */\n      tag_69\n      swap2\n      swap1\n      tag_56\n      jump\t// in\n    tag_69:\n        /* \"defi/contracts/DeFiLending.sol\":1887:1896  msg.value */\n      callvalue\n        /* \"defi/contracts/DeFiLending.sol\":1887:1927  msg.value == loan.amount + loan.interest */\n      eq\n        /* \"defi/contracts/DeFiLending.sol\":1879:1958  require(msg.value == loan.amount + loan.interest, \"Incorrect repayment amount\") */\n      tag_70\n      jumpi\n      mload(0x40)\n      0x08c379a000000000000000000000000000000000000000000000000000000000\n      dup2\n      mstore\n      0x04\n      add\n      tag_71\n      swap1\n      tag_72\n      jump\t// in\n    tag_71:\n      mload(0x40)\n      dup1\n      swap2\n      sub\n      swap1\n      revert\n    tag_70:\n        /* \"defi/contracts/DeFiLending.sol\":1985:1989  true */\n      0x01\n        /* \"defi/contracts/DeFiLending.sol\":1971:1975  loan */\n      dup2\n        /* \"defi/contracts/DeFiLending.sol\":1971:1982  loan.repaid */\n      0x04\n      add\n      0x00\n        /* \"defi/contracts/DeFiLending.sol\":1971:1989  loan.repaid = true */\n      0x0100\n      exp\n      dup2\n      sload\n      dup2\n      0xff\n      mul\n      not\n      and\n      swap1\n      dup4\n      iszero\n      iszero\n      mul\n      or\n      swap1\n      sstore\n      pop\n        /* \"defi/contracts/DeFiLending.sol\":2027:2031  loan */\n      dup1\n        /* \"defi/contracts/DeFiLending.sol\":2027:2040  loan.interest */\n      0x02\n      add\n      sload\n        /* \"defi/contracts/DeFiLending.sol\":2000:2008  deposits */\n      0x00\n        /* \"defi/contracts/DeFiLending.sol\":2000:2023  deposits[address(this)] */\n      dup1\n        /* \"defi/contracts/DeFiLending.sol\":2017:2021  this */\n      address\n        /* \"defi/contracts/DeFiLending.sol\":2000:2023  deposits[address(this)] */\n      0xffffffffffffffffffffffffffffffffffffffff\n      and\n      0xffffffffffffffffffffffffffffffffffffffff\n      and\n      dup2\n      mstore\n      0x20\n      add\n      swap1\n      dup2\n      mstore\n      0x20\n      add\n      0x00\n      keccak256\n      0x00\n        /* \"defi/contracts/DeFiLending.sol\":2000:2040  deposits[address(this)] += loan.interest */\n      dup3\n      dup3\n      sload\n      tag_73\n      swap2\n      swap1\n      tag_56\n      jump\t// in\n    tag_73:\n      swap3\n      pop\n      pop\n      dup2\n      swap1\n      sstore\n      pop\n        /* \"defi/contracts/DeFiLending.sol\":2075:2085  msg.sender */\n      caller\n        /* \"defi/contracts/DeFiLending.sol\":2056:2086  LoanRepaid(loanId, msg.sender) */\n      0xffffffffffffffffffffffffffffffffffffffff\n      and\n        /* \"defi/contracts/DeFiLending.sol\":2067:2073  loanId */\n      dup3\n        /* \"defi/contracts/DeFiLending.sol\":2056:2086  LoanRepaid(loanId, msg.sender) */\n      0xe69d7686a8bc68278b8c5419579f91716b3ef2ac2fac0d8cf80b8011f8f458a4\n      mload(0x40)\n      mload(0x40)\n      dup1\n      swap2\n      sub\n      swap1\n      log3\n        /* \"defi/contracts/DeFiLending.sol\":1702:2094  {... */\n      pop\n        /* \"defi/contracts/DeFiLending.sol\":1652:2094  function repayLoan(uint256 loanId) public payable {... */\n      pop\n      jump\t// out\n        /* \"defi/contracts/DeFiLending.sol\":689:821  function deposit() public payable {... */\n    tag_29:\n        /* \"defi/contracts/DeFiLending.sol\":758:767  msg.value */\n      callvalue\n        /* \"defi/contracts/DeFiLending.sol\":734:742  deposits */\n      0x00\n        /* \"defi/contracts/DeFiLending.sol\":734:754  deposits[msg.sender] */\n      dup1\n        /* \"defi/contracts/DeFiLending.sol\":743:753  msg.sender */\n      caller\n        /* \"defi/contracts/DeFiLending.sol\":734:754  deposits[msg.sender] */\n      0xffffffffffffffffffffffffffffffffffffffff\n      and\n      0xffffffffffffffffffffffffffffffffffffffff\n      and\n      dup2\n      mstore\n      0x20\n      add\n      swap1\n      dup2\n      mstore\n      0x20\n      add\n      0x00\n      keccak256\n      0x00\n        /* \"defi/contracts/DeFiLending.sol\":734:767  deposits[msg.sender] += msg.value */\n      dup3\n      dup3\n      sload\n      tag_75\n      swap2\n      swap1\n      tag_56\n      jump\t// in\n    tag_75:\n      swap3\n      pop\n      pop\n      dup2\n      swap1\n      sstore\n      pop\n        /* \"defi/contracts/DeFiLending.sol\":791:801  msg.sender */\n      caller\n        /* \"defi/contracts/DeFiLending.sol\":783:813  Deposit(msg.sender, msg.value) */\n      0xffffffffffffffffffffffffffffffffffffffff\n      and\n      0xe1fffcc4923d04b559f4d29a8bfc6cda04eb5b0d3c460751c2402c5c5cc9109c\n        /* \"defi/contracts/DeFiLending.sol\":803:812  msg.value */\n      callvalue\n        /* \"defi/contracts/DeFiLending.sol\":783:813  Deposit(msg.sender, msg.value) */\n      mload(0x40)\n      tag_76\n      swap2\n      swap1\n      tag_19\n      jump\t// in\n    tag_76:\n      mload(0x40)\n      dup1\n      swap2\n      sub\n      swap1\n      log2\n        /* \"defi/contracts/DeFiLending.sol\":689:821  function deposit() public payable {... */\n      jump\t// out\n        /* \"defi/contracts/DeFiLending.sol\":293:330  mapping(uint256 => Loan) public loans */\n    tag_33:\n      mstore(0x20, 0x01)\n      dup1\n      0x00\n      mstore\n      keccak256(0x00, 0x40)\n      0x00\n      swap2\n      pop\n      swap1\n      pop\n      dup1\n      0x00\n      add\n      sload\n      swap1\n      dup1\n      0x01\n      add\n      0x00\n      swap1\n      sload\n      swap1\n      0x0100\n      exp\n      swap1\n      div\n      0xffffffffffffffffffffffffffffffffffffffff\n      and\n      swap1\n      dup1\n      0x02\n      add\n      sload\n      swap1\n      dup1\n      0x03\n      add\n      sload\n      swap1\n      dup1\n      0x04\n      add\n      0x00\n      swap1\n      sload\n      swap1\n      0x0100\n      exp\n      swap1\n      div\n      0xff\n      and\n      swap1\n      pop\n      dup6\n      jump\t// out\n        /* \"defi/contracts/DeFiLending.sol\":243:286  mapping(address => uint256) public deposits */\n    tag_40:\n      mstore(0x20, 0x00)\n      dup1\n      0x00\n      mstore\n      keccak256(0x00, 0x40)\n      0x00\n      swap2\n      pop\n      swap1\n      pop\n      sload\n      dup2\n      jump\t// out\n        /* \"#utility.yul\":88:205   */\n    tag_78:\n        /* \"#utility.yul\":197:198   */\n      0x00\n        /* \"#utility.yul\":194:195   */\n      dup1\n        /* \"#utility.yul\":187:199   */\n      revert\n        /* \"#utility.yul\":334:411   */\n    tag_80:\n        /* \"#utility.yul\":371:378   */\n      0x00\n        /* \"#utility.yul\":400:405   */\n      dup2\n        /* \"#utility.yul\":389:405   */\n      swap1\n      pop\n        /* \"#utility.yul\":334:411   */\n      swap2\n      swap1\n      pop\n      jump\t// out\n        /* \"#utility.yul\":417:539   */\n    tag_81:\n        /* \"#utility.yul\":490:514   */\n      tag_107\n        /* \"#utility.yul\":508:513   */\n      dup2\n        /* \"#utility.yul\":490:514   */\n      tag_80\n      jump\t// in\n    tag_107:\n        /* \"#utility.yul\":483:488   */\n      dup2\n        /* \"#utility.yul\":480:515   */\n      eq\n        /* \"#utility.yul\":470:533   */\n      tag_108\n      jumpi\n        /* \"#utility.yul\":529:530   */\n      0x00\n        /* \"#utility.yul\":526:527   */\n      dup1\n        /* \"#utility.yul\":519:531   */\n      revert\n        /* \"#utility.yul\":470:533   */\n    tag_108:\n        /* \"#utility.yul\":417:539   */\n      pop\n      jump\t// out\n        /* \"#utility.yul\":545:684   */\n    tag_82:\n        /* \"#utility.yul\":591:596   */\n      0x00\n        /* \"#utility.yul\":629:635   */\n      dup2\n        /* \"#utility.yul\":616:636   */\n      calldataload\n        /* \"#utility.yul\":607:636   */\n      swap1\n      pop\n        /* \"#utility.yul\":645:678   */\n      tag_110\n        /* \"#utility.yul\":672:677   */\n      dup2\n        /* \"#utility.yul\":645:678   */\n      tag_81\n      jump\t// in\n    tag_110:\n        /* \"#utility.yul\":545:684   */\n      swap3\n      swap2\n      pop\n      pop\n      jump\t// out\n        /* \"#utility.yul\":690:1019   */\n    tag_13:\n        /* \"#utility.yul\":749:755   */\n      0x00\n        /* \"#utility.yul\":798:800   */\n      0x20\n        /* \"#utility.yul\":786:795   */\n      dup3\n        /* \"#utility.yul\":777:784   */\n      dup5\n        /* \"#utility.yul\":773:796   */\n      sub\n        /* \"#utility.yul\":769:801   */\n      slt\n        /* \"#utility.yul\":766:885   */\n      iszero\n      tag_112\n      jumpi\n        /* \"#utility.yul\":804:883   */\n      tag_113\n      tag_78\n      jump\t// in\n    tag_113:\n        /* \"#utility.yul\":766:885   */\n    tag_112:\n        /* \"#utility.yul\":924:925   */\n      0x00\n        /* \"#utility.yul\":949:1002   */\n      tag_114\n        /* \"#utility.yul\":994:1001   */\n      dup5\n        /* \"#utility.yul\":985:991   */\n      dup3\n        /* \"#utility.yul\":974:983   */\n      dup6\n        /* \"#utility.yul\":970:992   */\n      add\n        /* \"#utility.yul\":949:1002   */\n      tag_82\n      jump\t// in\n    tag_114:\n        /* \"#utility.yul\":939:1002   */\n      swap2\n      pop\n        /* \"#utility.yul\":895:1012   */\n      pop\n        /* \"#utility.yul\":690:1019   */\n      swap3\n      swap2\n      pop\n      pop\n      jump\t// out\n        /* \"#utility.yul\":1025:1143   */\n    tag_83:\n        /* \"#utility.yul\":1112:1136   */\n      tag_116\n        /* \"#utility.yul\":1130:1135   */\n      dup2\n        /* \"#utility.yul\":1112:1136   */\n      tag_80\n      jump\t// in\n    tag_116:\n        /* \"#utility.yul\":1107:1110   */\n      dup3\n        /* \"#utility.yul\":1100:1137   */\n      mstore\n        /* \"#utility.yul\":1025:1143   */\n      pop\n      pop\n      jump\t// out\n        /* \"#utility.yul\":1149:1371   */\n    tag_19:\n        /* \"#utility.yul\":1242:1246   */\n      0x00\n        /* \"#utility.yul\":1280:1282   */\n      0x20\n        /* \"#utility.yul\":1269:1278   */\n      dup3\n        /* \"#utility.yul\":1265:1283   */\n      add\n        /* \"#utility.yul\":1257:1283   */\n      swap1\n      pop\n        /* \"#utility.yul\":1293:1364   */\n      tag_118\n        /* \"#utility.yul\":1361:1362   */\n      0x00\n        /* \"#utility.yul\":1350:1359   */\n      dup4\n        /* \"#utility.yul\":1346:1363   */\n      add\n        /* \"#utility.yul\":1337:1343   */\n      dup5\n        /* \"#utility.yul\":1293:1364   */\n      tag_83\n      jump\t// in\n    tag_118:\n        /* \"#utility.yul\":1149:1371   */\n      swap3\n      swap2\n      pop\n      pop\n      jump\t// out\n        /* \"#utility.yul\":1377:1996   */\n    tag_23:\n        /* \"#utility.yul\":1454:1460   */\n      0x00\n        /* \"#utility.yul\":1462:1468   */\n      dup1\n        /* \"#utility.yul\":1470:1476   */\n      0x00\n        /* \"#utility.yul\":1519:1521   */\n      0x60\n        /* \"#utility.yul\":1507:1516   */\n      dup5\n        /* \"#utility.yul\":1498:1505   */\n      dup7\n        /* \"#utility.yul\":1494:1517   */\n      sub\n        /* \"#utility.yul\":1490:1522   */\n      slt\n        /* \"#utility.yul\":1487:1606   */\n      iszero\n      tag_120\n      jumpi\n        /* \"#utility.yul\":1525:1604   */\n      tag_121\n      tag_78\n      jump\t// in\n    tag_121:\n        /* \"#utility.yul\":1487:1606   */\n    tag_120:\n        /* \"#utility.yul\":1645:1646   */\n      0x00\n        /* \"#utility.yul\":1670:1723   */\n      tag_122\n        /* \"#utility.yul\":1715:1722   */\n      dup7\n        /* \"#utility.yul\":1706:1712   */\n      dup3\n        /* \"#utility.yul\":1695:1704   */\n      dup8\n        /* \"#utility.yul\":1691:1713   */\n      add\n        /* \"#utility.yul\":1670:1723   */\n      tag_82\n      jump\t// in\n    tag_122:\n        /* \"#utility.yul\":1660:1723   */\n      swap4\n      pop\n        /* \"#utility.yul\":1616:1733   */\n      pop\n        /* \"#utility.yul\":1772:1774   */\n      0x20\n        /* \"#utility.yul\":1798:1851   */\n      tag_123\n        /* \"#utility.yul\":1843:1850   */\n      dup7\n        /* \"#utility.yul\":1834:1840   */\n      dup3\n        /* \"#utility.yul\":1823:1832   */\n      dup8\n        /* \"#utility.yul\":1819:1841   */\n      add\n        /* \"#utility.yul\":1798:1851   */\n      tag_82\n      jump\t// in\n    tag_123:\n        /* \"#utility.yul\":1788:1851   */\n      swap3\n      pop\n        /* \"#utility.yul\":1743:1861   */\n      pop\n        /* \"#utility.yul\":1900:1902   */\n      0x40\n        /* \"#utility.yul\":1926:1979   */\n      tag_124\n        /* \"#utility.yul\":1971:1978   */\n      dup7\n        /* \"#utility.yul\":1962:1968   */\n      dup3\n        /* \"#utility.yul\":1951:1960   */\n      dup8\n        /* \"#utility.yul\":1947:1969   */\n      add\n        /* \"#utility.yul\":1926:1979   */\n      tag_82\n      jump\t// in\n    tag_124:\n        /* \"#utility.yul\":1916:1979   */\n      swap2\n      pop\n        /* \"#utility.yul\":1871:1989   */\n      pop\n        /* \"#utility.yul\":1377:1996   */\n      swap3\n      pop\n      swap3\n      pop\n      swap3\n      jump\t// out\n        /* \"#utility.yul\":2002:2128   */\n    tag_84:\n        /* \"#utility.yul\":2039:2046   */\n      0x00\n        /* \"#utility.yul\":2079:2121   */\n      0xffffffffffffffffffffffffffffffffffffffff\n        /* \"#utility.yul\":2072:2077   */\n      dup3\n        /* \"#utility.yul\":2068:2122   */\n      and\n        /* \"#utility.yul\":2057:2122   */\n      swap1\n      pop\n        /* \"#utility.yul\":2002:2128   */\n      swap2\n      swap1\n      pop\n      jump\t// out\n        /* \"#utility.yul\":2134:2230   */\n    tag_85:\n        /* \"#utility.yul\":2171:2178   */\n      0x00\n        /* \"#utility.yul\":2200:2224   */\n      tag_127\n        /* \"#utility.yul\":2218:2223   */\n      dup3\n        /* \"#utility.yul\":2200:2224   */\n      tag_84\n      jump\t// in\n    tag_127:\n        /* \"#utility.yul\":2189:2224   */\n      swap1\n      pop\n        /* \"#utility.yul\":2134:2230   */\n      swap2\n      swap1\n      pop\n      jump\t// out\n        /* \"#utility.yul\":2236:2354   */\n    tag_86:\n        /* \"#utility.yul\":2323:2347   */\n      tag_129\n        /* \"#utility.yul\":2341:2346   */\n      dup2\n        /* \"#utility.yul\":2323:2347   */\n      tag_85\n      jump\t// in\n    tag_129:\n        /* \"#utility.yul\":2318:2321   */\n      dup3\n        /* \"#utility.yul\":2311:2348   */\n      mstore\n        /* \"#utility.yul\":2236:2354   */\n      pop\n      pop\n      jump\t// out\n        /* \"#utility.yul\":2360:2450   */\n    tag_87:\n        /* \"#utility.yul\":2394:2401   */\n      0x00\n        /* \"#utility.yul\":2437:2442   */\n      dup2\n        /* \"#utility.yul\":2430:2443   */\n      iszero\n        /* \"#utility.yul\":2423:2444   */\n      iszero\n        /* \"#utility.yul\":2412:2444   */\n      swap1\n      pop\n        /* \"#utility.yul\":2360:2450   */\n      swap2\n      swap1\n      pop\n      jump\t// out\n        /* \"#utility.yul\":2456:2565   */\n    tag_88:\n        /* \"#utility.yul\":2537:2558   */\n      tag_132\n        /* \"#utility.yul\":2552:2557   */\n      dup2\n        /* \"#utility.yul\":2537:2558   */\n      tag_87\n      jump\t// in\n    tag_132:\n        /* \"#utility.yul\":2532:2535   */\n      dup3\n        /* \"#utility.yul\":2525:2559   */\n      mstore\n        /* \"#utility.yul\":2456:2565   */\n      pop\n      pop\n      jump\t// out\n        /* \"#utility.yul\":2571:3223   */\n    tag_35:\n        /* \"#utility.yul\":2770:2774   */\n      0x00\n        /* \"#utility.yul\":2808:2811   */\n      0xa0\n        /* \"#utility.yul\":2797:2806   */\n      dup3\n        /* \"#utility.yul\":2793:2812   */\n      add\n        /* \"#utility.yul\":2785:2812   */\n      swap1\n      pop\n        /* \"#utility.yul\":2822:2893   */\n      tag_134\n        /* \"#utility.yul\":2890:2891   */\n      0x00\n        /* \"#utility.yul\":2879:2888   */\n      dup4\n        /* \"#utility.yul\":2875:2892   */\n      add\n        /* \"#utility.yul\":2866:2872   */\n      dup9\n        /* \"#utility.yul\":2822:2893   */\n      tag_83\n      jump\t// in\n    tag_134:\n        /* \"#utility.yul\":2903:2975   */\n      tag_135\n        /* \"#utility.yul\":2971:2973   */\n      0x20\n        /* \"#utility.yul\":2960:2969   */\n      dup4\n        /* \"#utility.yul\":2956:2974   */\n      add\n        /* \"#utility.yul\":2947:2953   */\n      dup8\n        /* \"#utility.yul\":2903:2975   */\n      tag_86\n      jump\t// in\n    tag_135:\n        /* \"#utility.yul\":2985:3057   */\n      tag_136\n        /* \"#utility.yul\":3053:3055   */\n      0x40\n        /* \"#utility.yul\":3042:3051   */\n      dup4\n        /* \"#utility.yul\":3038:3056   */\n      add\n        /* \"#utility.yul\":3029:3035   */\n      dup7\n        /* \"#utility.yul\":2985:3057   */\n      tag_83\n      jump\t// in\n    tag_136:\n        /* \"#utility.yul\":3067:3139   */\n      tag_137\n        /* \"#utility.yul\":3135:3137   */\n      0x60\n        /* \"#utility.yul\":3124:3133   */\n      dup4\n        /* \"#utility.yul\":3120:3138   */\n      add\n        /* \"#utility.yul\":3111:3117   */\n      dup6\n        /* \"#utility.yul\":3067:3139   */\n      tag_83\n      jump\t// in\n    tag_137:\n        /* \"#utility.yul\":3149:3216   */\n      tag_138\n        /* \"#utility.yul\":3211:3214   */\n      0x80\n        /* \"#utility.yul\":3200:3209   */\n      dup4\n        /* \"#utility.yul\":3196:3215   */\n      add\n        /* \"#utility.yul\":3187:3193   */\n      dup5\n        /* \"#utility.yul\":3149:3216   */\n      tag_88\n      jump\t// in\n    tag_138:\n        /* \"#utility.yul\":2571:3223   */\n      swap7\n      swap6\n      pop\n      pop\n      pop\n      pop\n      pop\n      pop\n      jump\t// out\n        /* \"#utility.yul\":3229:3351   */\n    tag_89:\n        /* \"#utility.yul\":3302:3326   */\n      tag_140\n        /* \"#utility.yul\":3320:3325   */\n      dup2\n        /* \"#utility.yul\":3302:3326   */\n      tag_85\n      jump\t// in\n    tag_140:\n        /* \"#utility.yul\":3295:3300   */\n      dup2\n        /* \"#utility.yul\":3292:3327   */\n      eq\n        /* \"#utility.yul\":3282:3345   */\n      tag_141\n      jumpi\n        /* \"#utility.yul\":3341:3342   */\n      0x00\n        /* \"#utility.yul\":3338:3339   */\n      dup1\n        /* \"#utility.yul\":3331:3343   */\n      revert\n        /* \"#utility.yul\":3282:3345   */\n    tag_141:\n        /* \"#utility.yul\":3229:3351   */\n      pop\n      jump\t// out\n        /* \"#utility.yul\":3357:3496   */\n    tag_90:\n        /* \"#utility.yul\":3403:3408   */\n      0x00\n        /* \"#utility.yul\":3441:3447   */\n      dup2\n        /* \"#utility.yul\":3428:3448   */\n      calldataload\n        /* \"#utility.yul\":3419:3448   */\n      swap1\n      pop\n        /* \"#utility.yul\":3457:3490   */\n      tag_143\n        /* \"#utility.yul\":3484:3489   */\n      dup2\n        /* \"#utility.yul\":3457:3490   */\n      tag_89\n      jump\t// in\n    tag_143:\n        /* \"#utility.yul\":3357:3496   */\n      swap3\n      swap2\n      pop\n      pop\n      jump\t// out\n        /* \"#utility.yul\":3502:3831   */\n    tag_39:\n        /* \"#utility.yul\":3561:3567   */\n      0x00\n        /* \"#utility.yul\":3610:3612   */\n      0x20\n        /* \"#utility.yul\":3598:3607   */\n      dup3\n        /* \"#utility.yul\":3589:3596   */\n      dup5\n        /* \"#utility.yul\":3585:3608   */\n      sub\n        /* \"#utility.yul\":3581:3613   */\n      slt\n        /* \"#utility.yul\":3578:3697   */\n      iszero\n      tag_145\n      jumpi\n        /* \"#utility.yul\":3616:3695   */\n      tag_146\n      tag_78\n      jump\t// in\n    tag_146:\n        /* \"#utility.yul\":3578:3697   */\n    tag_145:\n        /* \"#utility.yul\":3736:3737   */\n      0x00\n        /* \"#utility.yul\":3761:3814   */\n      tag_147\n        /* \"#utility.yul\":3806:3813   */\n      dup5\n        /* \"#utility.yul\":3797:3803   */\n      dup3\n        /* \"#utility.yul\":3786:3795   */\n      dup6\n        /* \"#utility.yul\":3782:3804   */\n      add\n        /* \"#utility.yul\":3761:3814   */\n      tag_90\n      jump\t// in\n    tag_147:\n        /* \"#utility.yul\":3751:3814   */\n      swap2\n      pop\n        /* \"#utility.yul\":3707:3824   */\n      pop\n        /* \"#utility.yul\":3502:3831   */\n      swap3\n      swap2\n      pop\n      pop\n      jump\t// out\n        /* \"#utility.yul\":3837:4006   */\n    tag_91:\n        /* \"#utility.yul\":3921:3932   */\n      0x00\n        /* \"#utility.yul\":3955:3961   */\n      dup3\n        /* \"#utility.yul\":3950:3953   */\n      dup3\n        /* \"#utility.yul\":3943:3962   */\n      mstore\n        /* \"#utility.yul\":3995:3999   */\n      0x20\n        /* \"#utility.yul\":3990:3993   */\n      dup3\n        /* \"#utility.yul\":3986:4000   */\n      add\n        /* \"#utility.yul\":3971:4000   */\n      swap1\n      pop\n        /* \"#utility.yul\":3837:4006   */\n      swap3\n      swap2\n      pop\n      pop\n      jump\t// out\n        /* \"#utility.yul\":4012:4182   */\n    tag_92:\n        /* \"#utility.yul\":4152:4174   */\n      0x496e73756666696369656e742062616c616e6365000000000000000000000000\n        /* \"#utility.yul\":4148:4149   */\n      0x00\n        /* \"#utility.yul\":4140:4146   */\n      dup3\n        /* \"#utility.yul\":4136:4150   */\n      add\n        /* \"#utility.yul\":4129:4175   */\n      mstore\n        /* \"#utility.yul\":4012:4182   */\n      pop\n      jump\t// out\n        /* \"#utility.yul\":4188:4554   */\n    tag_93:\n        /* \"#utility.yul\":4330:4333   */\n      0x00\n        /* \"#utility.yul\":4351:4418   */\n      tag_151\n        /* \"#utility.yul\":4415:4417   */\n      0x14\n        /* \"#utility.yul\":4410:4413   */\n      dup4\n        /* \"#utility.yul\":4351:4418   */\n      tag_91\n      jump\t// in\n    tag_151:\n        /* \"#utility.yul\":4344:4418   */\n      swap2\n      pop\n        /* \"#utility.yul\":4427:4520   */\n      tag_152\n        /* \"#utility.yul\":4516:4519   */\n      dup3\n        /* \"#utility.yul\":4427:4520   */\n      tag_92\n      jump\t// in\n    tag_152:\n        /* \"#utility.yul\":4545:4547   */\n      0x20\n        /* \"#utility.yul\":4540:4543   */\n      dup3\n        /* \"#utility.yul\":4536:4548   */\n      add\n        /* \"#utility.yul\":4529:4548   */\n      swap1\n      pop\n        /* \"#utility.yul\":4188:4554   */\n      swap2\n      swap1\n      pop\n      jump\t// out\n        /* \"#utility.yul\":4560:4979   */\n    tag_45:\n        /* \"#utility.yul\":4726:4730   */\n      0x00\n        /* \"#utility.yul\":4764:4766   */\n      0x20\n        /* \"#utility.yul\":4753:4762   */\n      dup3\n        /* \"#utility.yul\":4749:4767   */\n      add\n        /* \"#utility.yul\":4741:4767   */\n      swap1\n      pop\n        /* \"#utility.yul\":4813:4822   */\n      dup2\n        /* \"#utility.yul\":4807:4811   */\n      dup2\n        /* \"#utility.yul\":4803:4823   */\n      sub\n        /* \"#utility.yul\":4799:4800   */\n      0x00\n        /* \"#utility.yul\":4788:4797   */\n      dup4\n        /* \"#utility.yul\":4784:4801   */\n      add\n        /* \"#utility.yul\":4777:4824   */\n      mstore\n        /* \"#utility.yul\":4841:4972   */\n      tag_154\n        /* \"#utility.yul\":4967:4971   */\n      dup2\n        /* \"#utility.yul\":4841:4972   */\n      tag_93\n      jump\t// in\n    tag_154:\n        /* \"#utility.yul\":4833:4972   */\n      swap1\n      pop\n        /* \"#utility.yul\":4560:4979   */\n      swap2\n      swap1\n      pop\n      jump\t// out\n        /* \"#utility.yul\":4985:5165   */\n    tag_94:\n        /* \"#utility.yul\":5033:5110   */\n      0x4e487b7100000000000000000000000000000000000000000000000000000000\n        /* \"#utility.yul\":5030:5031   */\n      0x00\n        /* \"#utility.yul\":5023:5111   */\n      mstore\n        /* \"#utility.yul\":5130:5134   */\n      0x11\n        /* \"#utility.yul\":5127:5128   */\n      0x04\n        /* \"#utility.yul\":5120:5135   */\n      mstore\n        /* \"#utility.yul\":5154:5158   */\n      0x24\n        /* \"#utility.yul\":5151:5152   */\n      0x00\n        /* \"#utility.yul\":5144:5159   */\n      revert\n        /* \"#utility.yul\":5171:5365   */\n    tag_47:\n        /* \"#utility.yul\":5211:5215   */\n      0x00\n        /* \"#utility.yul\":5231:5251   */\n      tag_157\n        /* \"#utility.yul\":5249:5250   */\n      dup3\n        /* \"#utility.yul\":5231:5251   */\n      tag_80\n      jump\t// in\n    tag_157:\n        /* \"#utility.yul\":5226:5251   */\n      swap2\n      pop\n        /* \"#utility.yul\":5265:5285   */\n      tag_158\n        /* \"#utility.yul\":5283:5284   */\n      dup4\n        /* \"#utility.yul\":5265:5285   */\n      tag_80\n      jump\t// in\n    tag_158:\n        /* \"#utility.yul\":5260:5285   */\n      swap3\n      pop\n        /* \"#utility.yul\":5309:5310   */\n      dup3\n        /* \"#utility.yul\":5306:5307   */\n      dup3\n        /* \"#utility.yul\":5302:5311   */\n      sub\n        /* \"#utility.yul\":5294:5311   */\n      swap1\n      pop\n        /* \"#utility.yul\":5333:5334   */\n      dup2\n        /* \"#utility.yul\":5327:5331   */\n      dup2\n        /* \"#utility.yul\":5324:5335   */\n      gt\n        /* \"#utility.yul\":5321:5358   */\n      iszero\n      tag_159\n      jumpi\n        /* \"#utility.yul\":5338:5356   */\n      tag_160\n      tag_94\n      jump\t// in\n    tag_160:\n        /* \"#utility.yul\":5321:5358   */\n    tag_159:\n        /* \"#utility.yul\":5171:5365   */\n      swap3\n      swap2\n      pop\n      pop\n      jump\t// out\n        /* \"#utility.yul\":5371:5562   */\n    tag_56:\n        /* \"#utility.yul\":5411:5414   */\n      0x00\n        /* \"#utility.yul\":5430:5450   */\n      tag_162\n        /* \"#utility.yul\":5448:5449   */\n      dup3\n        /* \"#utility.yul\":5430:5450   */\n      tag_80\n      jump\t// in\n    tag_162:\n        /* \"#utility.yul\":5425:5450   */\n      swap2\n      pop\n        /* \"#utility.yul\":5464:5484   */\n      tag_163\n        /* \"#utility.yul\":5482:5483   */\n      dup4\n        /* \"#utility.yul\":5464:5484   */\n      tag_80\n      jump\t// in\n    tag_163:\n        /* \"#utility.yul\":5459:5484   */\n      swap3\n      pop\n        /* \"#utility.yul\":5507:5508   */\n      dup3\n        /* \"#utility.yul\":5504:5505   */\n      dup3\n        /* \"#utility.yul\":5500:5509   */\n      add\n        /* \"#utility.yul\":5493:5509   */\n      swap1\n      pop\n        /* \"#utility.yul\":5528:5531   */\n      dup1\n        /* \"#utility.yul\":5525:5526   */\n      dup3\n        /* \"#utility.yul\":5522:5532   */\n      gt\n        /* \"#utility.yul\":5519:5555   */\n      iszero\n      tag_164\n      jumpi\n        /* \"#utility.yul\":5535:5553   */\n      tag_165\n      tag_94\n      jump\t// in\n    tag_165:\n        /* \"#utility.yul\":5519:5555   */\n    tag_164:\n        /* \"#utility.yul\":5371:5562   */\n      swap3\n      swap2\n      pop\n      pop\n      jump\t// out\n        /* \"#utility.yul\":5568:6010   */\n    tag_59:\n        /* \"#utility.yul\":5717:5721   */\n      0x00\n        /* \"#utility.yul\":5755:5757   */\n      0x60\n        /* \"#utility.yul\":5744:5753   */\n      dup3\n        /* \"#utility.yul\":5740:5758   */\n      add\n        /* \"#utility.yul\":5732:5758   */\n      swap1\n      pop\n        /* \"#utility.yul\":5768:5839   */\n      tag_167\n        /* \"#utility.yul\":5836:5837   */\n      0x00\n        /* \"#utility.yul\":5825:5834   */\n      dup4\n        /* \"#utility.yul\":5821:5838   */\n      add\n        /* \"#utility.yul\":5812:5818   */\n      dup7\n        /* \"#utility.yul\":5768:5839   */\n      tag_83\n      jump\t// in\n    tag_167:\n        /* \"#utility.yul\":5849:5921   */\n      tag_168\n        /* \"#utility.yul\":5917:5919   */\n      0x20\n        /* \"#utility.yul\":5906:5915   */\n      dup4\n        /* \"#utility.yul\":5902:5920   */\n      add\n        /* \"#utility.yul\":5893:5899   */\n      dup6\n        /* \"#utility.yul\":5849:5921   */\n      tag_83\n      jump\t// in\n    tag_168:\n        /* \"#utility.yul\":5931:6003   */\n      tag_169\n        /* \"#utility.yul\":5999:6001   */\n      0x40\n        /* \"#utility.yul\":5988:5997   */\n      dup4\n        /* \"#utility.yul\":5984:6002   */\n      add\n        /* \"#utility.yul\":5975:5981   */\n      dup5\n        /* \"#utility.yul\":5931:6003   */\n      tag_83\n      jump\t// in\n    tag_169:\n        /* \"#utility.yul\":5568:6010   */\n      swap5\n      swap4\n      pop\n      pop\n      pop\n      pop\n      jump\t// out\n        /* \"#utility.yul\":6016:6249   */\n    tag_61:\n        /* \"#utility.yul\":6055:6058   */\n      0x00\n        /* \"#utility.yul\":6078:6102   */\n      tag_171\n        /* \"#utility.yul\":6096:6101   */\n      dup3\n        /* \"#utility.yul\":6078:6102   */\n      tag_80\n      jump\t// in\n    tag_171:\n        /* \"#utility.yul\":6069:6102   */\n      swap2\n      pop\n        /* \"#utility.yul\":6124:6190   */\n      0xffffffffffffffffffffffffffffffffffffffffffffffffffffffffffffffff\n        /* \"#utility.yul\":6117:6122   */\n      dup3\n        /* \"#utility.yul\":6114:6191   */\n      sub\n        /* \"#utility.yul\":6111:6214   */\n      tag_172\n      jumpi\n        /* \"#utility.yul\":6194:6212   */\n      tag_173\n      tag_94\n      jump\t// in\n    tag_173:\n        /* \"#utility.yul\":6111:6214   */\n    tag_172:\n        /* \"#utility.yul\":6241:6242   */\n      0x01\n        /* \"#utility.yul\":6234:6239   */\n      dup3\n        /* \"#utility.yul\":6230:6243   */\n      add\n        /* \"#utility.yul\":6223:6243   */\n      swap1\n      pop\n        /* \"#utility.yul\":6016:6249   */\n      swap2\n      swap1\n      pop\n      jump\t// out\n        /* \"#utility.yul\":6255:6421   */\n    tag_95:\n        /* \"#utility.yul\":6395:6413   */\n      0x4e6f742074686520626f72726f77657200000000000000000000000000000000\n        /* \"#utility.yul\":6391:6392   */\n      0x00\n        /* \"#utility.yul\":6383:6389   */\n      dup3\n        /* \"#utility.yul\":6379:6393   */\n      add\n        /* \"#utility.yul\":6372:6414   */\n      mstore\n        /* \"#utility.yul\":6255:6421   */\n      pop\n      jump\t// out\n        /* \"#utility.yul\":6427:6793   */\n    tag_96:\n        /* \"#utility.yul\":6569:6572   */\n      0x00\n        /* \"#utility.yul\":6590:6657   */\n      tag_176\n        /* \"#utility.yul\":6654:6656   */\n      0x10\n        /* \"#utility.yul\":6649:6652   */\n      dup4\n        /* \"#utility.yul\":6590:6657   */\n      tag_91\n      jump\t// in\n    tag_176:\n        /* \"#utility.yul\":6583:6657   */\n      swap2\n      pop\n        /* \"#utility.yul\":6666:6759   */\n      tag_177\n        /* \"#utility.yul\":6755:6758   */\n      dup3\n        /* \"#utility.yul\":6666:6759   */\n      tag_95\n      jump\t// in\n    tag_177:\n        /* \"#utility.yul\":6784:6786   */\n      0x20\n        /* \"#utility.yul\":6779:6782   */\n      dup3\n        /* \"#utility.yul\":6775:6787   */\n      add\n        /* \"#utility.yul\":6768:6787   */\n      swap1\n      pop\n        /* \"#utility.yul\":6427:6793   */\n      swap2\n      swap1\n      pop\n      jump\t// out\n        /* \"#utility.yul\":6799:7218   */\n    tag_65:\n        /* \"#utility.yul\":6965:6969   */\n      0x00\n        /* \"#utility.yul\":7003:7005   */\n      0x20\n        /* \"#utility.yul\":6992:7001   */\n      dup3\n        /* \"#utility.yul\":6988:7006   */\n      add\n        /* \"#utility.yul\":6980:7006   */\n      swap1\n      pop\n        /* \"#utility.yul\":7052:7061   */\n      dup2\n        /* \"#utility.yul\":7046:7050   */\n      dup2\n        /* \"#utility.yul\":7042:7062   */\n      sub\n        /* \"#utility.yul\":7038:7039   */\n      0x00\n        /* \"#utility.yul\":7027:7036   */\n      dup4\n        /* \"#utility.yul\":7023:7040   */\n      add\n        /* \"#utility.yul\":7016:7063   */\n      mstore\n        /* \"#utility.yul\":7080:7211   */\n      tag_179\n        /* \"#utility.yul\":7206:7210   */\n      dup2\n        /* \"#utility.yul\":7080:7211   */\n      tag_96\n      jump\t// in\n    tag_179:\n        /* \"#utility.yul\":7072:7211   */\n      swap1\n      pop\n        /* \"#utility.yul\":6799:7218   */\n      swap2\n      swap1\n      pop\n      jump\t// out\n        /* \"#utility.yul\":7224:7393   */\n    tag_97:\n        /* \"#utility.yul\":7364:7385   */\n      0x4c6f616e20616c72656164792072657061696400000000000000000000000000\n        /* \"#utility.yul\":7360:7361   */\n      0x00\n        /* \"#utility.yul\":7352:7358   */\n      dup3\n        /* \"#utility.yul\":7348:7362   */\n      add\n        /* \"#utility.yul\":7341:7386   */\n      mstore\n        /* \"#utility.yul\":7224:7393   */\n      pop\n      jump\t// out\n        /* \"#utility.yul\":7399:7765   */\n    tag_98:\n        /* \"#utility.yul\":7541:7544   */\n      0x00\n        /* \"#utility.yul\":7562:7629   */\n      tag_182\n        /* \"#utility.yul\":7626:7628   */\n      0x13\n        /* \"#utility.yul\":7621:7624   */\n      dup4\n        /* \"#utility.yul\":7562:7629   */\n      tag_91\n      jump\t// in\n    tag_182:\n        /* \"#utility.yul\":7555:7629   */\n      swap2\n      pop\n        /* \"#utility.yul\":7638:7731   */\n      tag_183\n        /* \"#utility.yul\":7727:7730   */\n      dup3\n        /* \"#utility.yul\":7638:7731   */\n      tag_97\n      jump\t// in\n    tag_183:\n        /* \"#utility.yul\":7756:7758   */\n      0x20\n        /* \"#utility.yul\":7751:7754   */\n      dup3\n        /* \"#utility.yul\":7747:7759   */\n      add\n        /* \"#utility.yul\":7740:7759   */\n      swap1\n      pop\n        /* \"#utility.yul\":7399:7765   */\n      swap2\n      swap1\n      pop\n      jump\t// out\n        /* \"#utility.yul\":7771:8190   */\n    tag_68:\n        /* \"#utility.yul\":7937:7941   */\n      0x00\n        /* \"#utility.yul\":7975:7977   */\n      0x20\n        /* \"#utility.yul\":7964:7973   */\n      dup3\n        /* \"#utility.yul\":7960:7978   */\n      add\n        /* \"#utility.yul\":7952:7978   */\n      swap1\n      pop\n        /* \"#utility.yul\":8024:8033   */\n      dup2\n        /* \"#utility.yul\":8018:8022   */\n      dup2\n        /* \"#utility.yul\":8014:8034   */\n      sub\n        /* \"#utility.yul\":8010:8011   */\n      0x00\n        /* \"#utility.yul\":7999:8008   */\n      dup4\n        /* \"#utility.yul\":7995:8012   */\n      add\n        /* \"#utility.yul\":7988:8035   */\n      mstore\n        /* \"#utility.yul\":8052:8183   */\n      tag_185\n        /* \"#utility.yul\":8178:8182   */\n      dup2\n        /* \"#utility.yul\":8052:8183   */\n      tag_98\n      jump\t// in\n    tag_185:\n        /* \"#utility.yul\":8044:8183   */\n      swap1\n      pop\n        /* \"#utility.yul\":7771:8190   */\n      swap2\n      swap1\n      pop\n      jump\t// out\n        /* \"#utility.yul\":8196:8372   */\n    tag_99:\n        /* \"#utility.yul\":8336:8364   */\n      0x496e636f72726563742072657061796d656e7420616d6f756e74000000000000\n        /* \"#utility.yul\":8332:8333   */\n      0x00\n        /* \"#utility.yul\":8324:8330   */\n      dup3\n        /* \"#utility.yul\":8320:8334   */\n      add\n        /* \"#utility.yul\":8313:8365   */\n      mstore\n        /* \"#utility.yul\":8196:8372   */\n      pop\n      jump\t// out\n        /* \"#utility.yul\":8378:8744   */\n    tag_100:\n        /* \"#utility.yul\":8520:8523   */\n      0x00\n        /* \"#utility.yul\":8541:8608   */\n      tag_188\n        /* \"#utility.yul\":8605:8607   */\n      0x1a\n        /* \"#utility.yul\":8600:8603   */\n      dup4\n        /* \"#utility.yul\":8541:8608   */\n      tag_91\n      jump\t// in\n    tag_188:\n        /* \"#utility.yul\":8534:8608   */\n      swap2\n      pop\n        /* \"#utility.yul\":8617:8710   */\n      tag_189\n        /* \"#utility.yul\":8706:8709   */\n      dup3\n        /* \"#utility.yul\":8617:8710   */\n      tag_99\n      jump\t// in\n    tag_189:\n        /* \"#utility.yul\":8735:8737   */\n      0x20\n        /* \"#utility.yul\":8730:8733   */\n      dup3\n        /* \"#utility.yul\":8726:8738   */\n      add\n        /* \"#utility.yul\":8719:8738   */\n      swap1\n      pop\n        /* \"#utility.yul\":8378:8744   */\n      swap2\n      swap1\n      pop\n      jump\t// out\n        /* \"#utility.yul\":8750:9169   */\n    tag_72:\n        /* \"#utility.yul\":8916:8920   */\n      0x00\n        /* \"#utility.yul\":8954:8956   */\n      0x20\n        /* \"#utility.yul\":8943:8952   */\n      dup3\n        /* \"#utility.yul\":8939:8957   */\n      add\n        /* \"#utility.yul\":8931:8957   */\n      swap1\n      pop\n        /* \"#utility.yul\":9003:9012   */\n      dup2\n        /* \"#utility.yul\":8997:9001   */\n      dup2\n        /* \"#utility.yul\":8993:9013   */\n      sub\n        /* \"#utility.yul\":8989:8990   */\n      0x00\n        /* \"#utility.yul\":8978:8987   */\n      dup4\n        /* \"#utility.yul\":8974:8991   */\n      add\n        /* \"#utility.yul\":8967:9014   */\n      mstore\n        /* \"#utility.yul\":9031:9162   */\n      tag_191\n        /* \"#utility.yul\":9157:9161   */\n      dup2\n        /* \"#utility.yul\":9031:9162   */\n      tag_100\n      jump\t// in\n    tag_191:\n        /* \"#utility.yul\":9023:9162   */\n      swap1\n      pop\n        /* \"#utility.yul\":8750:9169   */\n      swap2\n      swap1\n      pop\n      jump\t// out\n\n    auxdata: 0xa2646970667358221220b5dfa480928d2c98da078c900edd6a3bf0c7e31016bdfb79693dd3ea1f93142664736f6c63430008120033\n}\n",
				"bytecode": {
					"linkReferences": {},
					"object": "608060405234801561001057600080fd5b50610d6d806100206000396000f3fe6080604052600436106100705760003560e01c8063ab7b1c891161004e578063ab7b1c89146100f2578063d0e30db01461010e578063e1ec3c6814610118578063fc7e286d1461015957610070565b80632e1a7d4d1461007557806334d9289e1461009e578063904b513b146100c9575b600080fd5b34801561008157600080fd5b5061009c600480360381019061009791906108ae565b610196565b005b3480156100aa57600080fd5b506100b3610304565b6040516100c091906108ea565b60405180910390f35b3480156100d557600080fd5b506100f060048036038101906100eb9190610905565b61030a565b005b61010c600480360381019061010791906108ae565b610545565b005b610116610753565b005b34801561012457600080fd5b5061013f600480360381019061013a91906108ae565b6107f8565b6040516101509594939291906109b4565b60405180910390f35b34801561016557600080fd5b50610180600480360381019061017b9190610a33565b61085b565b60405161018d91906108ea565b60405180910390f35b806000803373ffffffffffffffffffffffffffffffffffffffff1673ffffffffffffffffffffffffffffffffffffffff168152602001908152602001600020541015610217576040517f08c379a000000000000000000000000000000000000000000000000000000000815260040161020e90610abd565b60405180910390fd5b806000803373ffffffffffffffffffffffffffffffffffffffff1673ffffffffffffffffffffffffffffffffffffffff16815260200190815260200160002060008282546102659190610b0c565b925050819055503373ffffffffffffffffffffffffffffffffffffffff166108fc829081150290604051600060405180830381858888f193505050501580156102b2573d6000803e3d6000fd5b503373ffffffffffffffffffffffffffffffffffffffff167f884edad9ce6fa2440d8a54cc123490eb96d2768479d49ff9c7366125a9424364826040516102f991906108ea565b60405180910390a250565b60025481565b826000803373ffffffffffffffffffffffffffffffffffffffff1673ffffffffffffffffffffffffffffffffffffffff16815260200190815260200160002054101561038b576040517f08c379a000000000000000000000000000000000000000000000000000000000815260040161038290610abd565b60405180910390fd5b826000803373ffffffffffffffffffffffffffffffffffffffff1673ffffffffffffffffffffffffffffffffffffffff16815260200190815260200160002060008282546103d99190610b0c565b925050819055506040518060a001604052808481526020013373ffffffffffffffffffffffffffffffffffffffff168152602001838152602001824261041f9190610b40565b8152602001600015158152506001600060025481526020019081526020016000206000820151816000015560208201518160010160006101000a81548173ffffffffffffffffffffffffffffffffffffffff021916908373ffffffffffffffffffffffffffffffffffffffff160217905550604082015181600201556060820151816003015560808201518160040160006101000a81548160ff0219169083151502179055509050503373ffffffffffffffffffffffffffffffffffffffff166002547fb2cca1719ad611d325136b9c9a4357f412d33694d93c60d4c1b6e922d524cf59858585426105119190610b40565b60405161052093929190610b74565b60405180910390a36002600081548092919061053b90610bab565b9190505550505050565b60006001600083815260200190815260200160002090508060010160009054906101000a900473ffffffffffffffffffffffffffffffffffffffff1673ffffffffffffffffffffffffffffffffffffffff163373ffffffffffffffffffffffffffffffffffffffff16146105ee576040517f08c379a00000000000000000000000000000000000000000000000000000000081526004016105e590610c3f565b60405180910390fd5b8060040160009054906101000a900460ff1615610640576040517f08c379a000000000000000000000000000000000000000000000000000000000815260040161063790610cab565b60405180910390fd5b806002015481600001546106549190610b40565b3414610695576040517f08c379a000000000000000000000000000000000000000000000000000000000815260040161068c90610d17565b60405180910390fd5b60018160040160006101000a81548160ff02191690831515021790555080600201546000803073ffffffffffffffffffffffffffffffffffffffff1673ffffffffffffffffffffffffffffffffffffffff16815260200190815260200160002060008282546107049190610b40565b925050819055503373ffffffffffffffffffffffffffffffffffffffff16827fe69d7686a8bc68278b8c5419579f91716b3ef2ac2fac0d8cf80b8011f8f458a460405160405180910390a35050565b346000803373ffffffffffffffffffffffffffffffffffffffff1673ffffffffffffffffffffffffffffffffffffffff16815260200190815260200160002060008282546107a19190610b40565b925050819055503373ffffffffffffffffffffffffffffffffffffffff167fe1fffcc4923d04b559f4d29a8bfc6cda04eb5b0d3c460751c2402c5c5cc9109c346040516107ee91906108ea565b60405180910390a2565b60016020528060005260406000206000915090508060000154908060010160009054906101000a900473ffffffffffffffffffffffffffffffffffffffff16908060020154908060030154908060040160009054906101000a900460ff16905085565b60006020528060005260406000206000915090505481565b600080fd5b6000819050919050565b61088b81610878565b811461089657600080fd5b50565b6000813590506108a881610882565b92915050565b6000602082840312156108c4576108c3610873565b5b60006108d284828501610899565b91505092915050565b6108e481610878565b82525050565b60006020820190506108ff60008301846108db565b92915050565b60008060006060848603121561091e5761091d610873565b5b600061092c86828701610899565b935050602061093d86828701610899565b925050604061094e86828701610899565b9150509250925092565b600073ffffffffffffffffffffffffffffffffffffffff82169050919050565b600061098382610958565b9050919050565b61099381610978565b82525050565b60008115159050919050565b6109ae81610999565b82525050565b600060a0820190506109c960008301886108db565b6109d6602083018761098a565b6109e360408301866108db565b6109f060608301856108db565b6109fd60808301846109a5565b9695505050505050565b610a1081610978565b8114610a1b57600080fd5b50565b600081359050610a2d81610a07565b92915050565b600060208284031215610a4957610a48610873565b5b6000610a5784828501610a1e565b91505092915050565b600082825260208201905092915050565b7f496e73756666696369656e742062616c616e6365000000000000000000000000600082015250565b6000610aa7601483610a60565b9150610ab282610a71565b602082019050919050565b60006020820190508181036000830152610ad681610a9a565b9050919050565b7f4e487b7100000000000000000000000000000000000000000000000000000000600052601160045260246000fd5b6000610b1782610878565b9150610b2283610878565b9250828203905081811115610b3a57610b39610add565b5b92915050565b6000610b4b82610878565b9150610b5683610878565b9250828201905080821115610b6e57610b6d610add565b5b92915050565b6000606082019050610b8960008301866108db565b610b9660208301856108db565b610ba360408301846108db565b949350505050565b6000610bb682610878565b91507fffffffffffffffffffffffffffffffffffffffffffffffffffffffffffffffff8203610be857610be7610add565b5b600182019050919050565b7f4e6f742074686520626f72726f77657200000000000000000000000000000000600082015250565b6000610c29601083610a60565b9150610c3482610bf3565b602082019050919050565b60006020820190508181036000830152610c5881610c1c565b9050919050565b7f4c6f616e20616c72656164792072657061696400000000000000000000000000600082015250565b6000610c95601383610a60565b9150610ca082610c5f565b602082019050919050565b60006020820190508181036000830152610cc481610c88565b9050919050565b7f496e636f72726563742072657061796d656e7420616d6f756e74000000000000600082015250565b6000610d01601a83610a60565b9150610d0c82610ccb565b602082019050919050565b60006020820190508181036000830152610d3081610cf4565b905091905056fea2646970667358221220b5dfa480928d2c98da078c900edd6a3bf0c7e31016bdfb79693dd3ea1f93142664736f6c63430008120033",
					"opcodes": "PUSH1 0x80 PUSH1 0x40 MSTORE CALLVALUE DUP1 ISZERO PUSH2 0x10 JUMPI PUSH1 0x0 DUP1 REVERT JUMPDEST POP PUSH2 0xD6D DUP1 PUSH2 0x20 PUSH1 0x0 CODECOPY PUSH1 0x0 RETURN INVALID PUSH1 0x80 PUSH1 0x40 MSTORE PUSH1 0x4 CALLDATASIZE LT PUSH2 0x70 JUMPI PUSH1 0x0 CALLDATALOAD PUSH1 0xE0 SHR DUP1 PUSH4 0xAB7B1C89 GT PUSH2 0x4E JUMPI DUP1 PUSH4 0xAB7B1C89 EQ PUSH2 0xF2 JUMPI DUP1 PUSH4 0xD0E30DB0 EQ PUSH2 0x10E JUMPI DUP1 PUSH4 0xE1EC3C68 EQ PUSH2 0x118 JUMPI DUP1 PUSH4 0xFC7E286D EQ PUSH2 0x159 JUMPI PUSH2 0x70 JUMP JUMPDEST DUP1 PUSH4 0x2E1A7D4D EQ PUSH2 0x75 JUMPI DUP1 PUSH4 0x34D9289E EQ PUSH2 0x9E JUMPI DUP1 PUSH4 0x904B513B EQ PUSH2 0xC9 JUMPI JUMPDEST PUSH1 0x0 DUP1 REVERT JUMPDEST CALLVALUE DUP1 ISZERO PUSH2 0x81 JUMPI PUSH1 0x0 DUP1 REVERT JUMPDEST POP PUSH2 0x9C PUSH1 0x4 DUP1 CALLDATASIZE SUB DUP2 ADD SWAP1 PUSH2 0x97 SWAP2 SWAP1 PUSH2 0x8AE JUMP JUMPDEST PUSH2 0x196 JUMP JUMPDEST STOP JUMPDEST CALLVALUE DUP1 ISZERO PUSH2 0xAA JUMPI PUSH1 0x0 DUP1 REVERT JUMPDEST POP PUSH2 0xB3 PUSH2 0x304 JUMP JUMPDEST PUSH1 0x40 MLOAD PUSH2 0xC0 SWAP2 SWAP1 PUSH2 0x8EA JUMP JUMPDEST PUSH1 0x40 MLOAD DUP1 SWAP2 SUB SWAP1 RETURN JUMPDEST CALLVALUE DUP1 ISZERO PUSH2 0xD5 JUMPI PUSH1 0x0 DUP1 REVERT JUMPDEST POP PUSH2 0xF0 PUSH1 0x4 DUP1 CALLDATASIZE SUB DUP2 ADD SWAP1 PUSH2 0xEB SWAP2 SWAP1 PUSH2 0x905 JUMP JUMPDEST PUSH2 0x30A JUMP JUMPDEST STOP JUMPDEST PUSH2 0x10C PUSH1 0x4 DUP1 CALLDATASIZE SUB DUP2 ADD SWAP1 PUSH2 0x107 SWAP2 SWAP1 PUSH2 0x8AE JUMP JUMPDEST PUSH2 0x545 JUMP JUMPDEST STOP JUMPDEST PUSH2 0x116 PUSH2 0x753 JUMP JUMPDEST STOP JUMPDEST CALLVALUE DUP1 ISZERO PUSH2 0x124 JUMPI PUSH1 0x0 DUP1 REVERT JUMPDEST POP PUSH2 0x13F PUSH1 0x4 DUP1 CALLDATASIZE SUB DUP2 ADD SWAP1 PUSH2 0x13A SWAP2 SWAP1 PUSH2 0x8AE JUMP JUMPDEST PUSH2 0x7F8 JUMP JUMPDEST PUSH1 0x40 MLOAD PUSH2 0x150 SWAP6 SWAP5 SWAP4 SWAP3 SWAP2 SWAP1 PUSH2 0x9B4 JUMP JUMPDEST PUSH1 0x40 MLOAD DUP1 SWAP2 SUB SWAP1 RETURN JUMPDEST CALLVALUE DUP1 ISZERO PUSH2 0x165 JUMPI PUSH1 0x0 DUP1 REVERT JUMPDEST POP PUSH2 0x180 PUSH1 0x4 DUP1 CALLDATASIZE SUB DUP2 ADD SWAP1 PUSH2 0x17B SWAP2 SWAP1 PUSH2 0xA33 JUMP JUMPDEST PUSH2 0x85B JUMP JUMPDEST PUSH1 0x40 MLOAD PUSH2 0x18D SWAP2 SWAP1 PUSH2 0x8EA JUMP JUMPDEST PUSH1 0x40 MLOAD DUP1 SWAP2 SUB SWAP1 RETURN JUMPDEST DUP1 PUSH1 0x0 DUP1 CALLER PUSH20 0xFFFFFFFFFFFFFFFFFFFFFFFFFFFFFFFFFFFFFFFF AND PUSH20 0xFFFFFFFFFFFFFFFFFFFFFFFFFFFFFFFFFFFFFFFF AND DUP2 MSTORE PUSH1 0x20 ADD SWAP1 DUP2 MSTORE PUSH1 0x20 ADD PUSH1 0x0 KECCAK256 SLOAD LT ISZERO PUSH2 0x217 JUMPI PUSH1 0x40 MLOAD PUSH32 0x8C379A000000000000000000000000000000000000000000000000000000000 DUP2 MSTORE PUSH1 0x4 ADD PUSH2 0x20E SWAP1 PUSH2 0xABD JUMP JUMPDEST PUSH1 0x40 MLOAD DUP1 SWAP2 SUB SWAP1 REVERT JUMPDEST DUP1 PUSH1 0x0 DUP1 CALLER PUSH20 0xFFFFFFFFFFFFFFFFFFFFFFFFFFFFFFFFFFFFFFFF AND PUSH20 0xFFFFFFFFFFFFFFFFFFFFFFFFFFFFFFFFFFFFFFFF AND DUP2 MSTORE PUSH1 0x20 ADD SWAP1 DUP2 MSTORE PUSH1 0x20 ADD PUSH1 0x0 KECCAK256 PUSH1 0x0 DUP3 DUP3 SLOAD PUSH2 0x265 SWAP2 SWAP1 PUSH2 0xB0C JUMP JUMPDEST SWAP3 POP POP DUP2 SWAP1 SSTORE POP CALLER PUSH20 0xFFFFFFFFFFFFFFFFFFFFFFFFFFFFFFFFFFFFFFFF AND PUSH2 0x8FC DUP3 SWAP1 DUP2 ISZERO MUL SWAP1 PUSH1 0x40 MLOAD PUSH1 0x0 PUSH1 0x40 MLOAD DUP1 DUP4 SUB DUP2 DUP6 DUP9 DUP9 CALL SWAP4 POP POP POP POP ISZERO DUP1 ISZERO PUSH2 0x2B2 JUMPI RETURNDATASIZE PUSH1 0x0 DUP1 RETURNDATACOPY RETURNDATASIZE PUSH1 0x0 REVERT JUMPDEST POP CALLER PUSH20 0xFFFFFFFFFFFFFFFFFFFFFFFFFFFFFFFFFFFFFFFF AND PUSH32 0x884EDAD9CE6FA2440D8A54CC123490EB96D2768479D49FF9C7366125A9424364 DUP3 PUSH1 0x40 MLOAD PUSH2 0x2F9 SWAP2 SWAP1 PUSH2 0x8EA JUMP JUMPDEST PUSH1 0x40 MLOAD DUP1 SWAP2 SUB SWAP1 LOG2 POP JUMP JUMPDEST PUSH1 0x2 SLOAD DUP2 JUMP JUMPDEST DUP3 PUSH1 0x0 DUP1 CALLER PUSH20 0xFFFFFFFFFFFFFFFFFFFFFFFFFFFFFFFFFFFFFFFF AND PUSH20 0xFFFFFFFFFFFFFFFFFFFFFFFFFFFFFFFFFFFFFFFF AND DUP2 MSTORE PUSH1 0x20 ADD SWAP1 DUP2 MSTORE PUSH1 0x20 ADD PUSH1 0x0 KECCAK256 SLOAD LT ISZERO PUSH2 0x38B JUMPI PUSH1 0x40 MLOAD PUSH32 0x8C379A000000000000000000000000000000000000000000000000000000000 DUP2 MSTORE PUSH1 0x4 ADD PUSH2 0x382 SWAP1 PUSH2 0xABD JUMP JUMPDEST PUSH1 0x40 MLOAD DUP1 SWAP2 SUB SWAP1 REVERT JUMPDEST DUP3 PUSH1 0x0 DUP1 CALLER PUSH20 0xFFFFFFFFFFFFFFFFFFFFFFFFFFFFFFFFFFFFFFFF AND PUSH20 0xFFFFFFFFFFFFFFFFFFFFFFFFFFFFFFFFFFFFFFFF AND DUP2 MSTORE PUSH1 0x20 ADD SWAP1 DUP2 MSTORE PUSH1 0x20 ADD PUSH1 0x0 KECCAK256 PUSH1 0x0 DUP3 DUP3 SLOAD PUSH2 0x3D9 SWAP2 SWAP1 PUSH2 0xB0C JUMP JUMPDEST SWAP3 POP POP DUP2 SWAP1 SSTORE POP PUSH1 0x40 MLOAD DUP1 PUSH1 0xA0 ADD PUSH1 0x40 MSTORE DUP1 DUP5 DUP2 MSTORE PUSH1 0x20 ADD CALLER PUSH20 0xFFFFFFFFFFFFFFFFFFFFFFFFFFFFFFFFFFFFFFFF AND DUP2 MSTORE PUSH1 0x20 ADD DUP4 DUP2 MSTORE PUSH1 0x20 ADD DUP3 TIMESTAMP PUSH2 0x41F SWAP2 SWAP1 PUSH2 0xB40 JUMP JUMPDEST DUP2 MSTORE PUSH1 0x20 ADD PUSH1 0x0 ISZERO ISZERO DUP2 MSTORE POP PUSH1 0x1 PUSH1 0x0 PUSH1 0x2 SLOAD DUP2 MSTORE PUSH1 0x20 ADD SWAP1 DUP2 MSTORE PUSH1 0x20 ADD PUSH1 0x0 KECCAK256 PUSH1 0x0 DUP3 ADD MLOAD DUP2 PUSH1 0x0 ADD SSTORE PUSH1 0x20 DUP3 ADD MLOAD DUP2 PUSH1 0x1 ADD PUSH1 0x0 PUSH2 0x100 EXP DUP2 SLOAD DUP2 PUSH20 0xFFFFFFFFFFFFFFFFFFFFFFFFFFFFFFFFFFFFFFFF MUL NOT AND SWAP1 DUP4 PUSH20 0xFFFFFFFFFFFFFFFFFFFFFFFFFFFFFFFFFFFFFFFF AND MUL OR SWAP1 SSTORE POP PUSH1 0x40 DUP3 ADD MLOAD DUP2 PUSH1 0x2 ADD SSTORE PUSH1 0x60 DUP3 ADD MLOAD DUP2 PUSH1 0x3 ADD SSTORE PUSH1 0x80 DUP3 ADD MLOAD DUP2 PUSH1 0x4 ADD PUSH1 0x0 PUSH2 0x100 EXP DUP2 SLOAD DUP2 PUSH1 0xFF MUL NOT AND SWAP1 DUP4 ISZERO ISZERO MUL OR SWAP1 SSTORE POP SWAP1 POP POP CALLER PUSH20 0xFFFFFFFFFFFFFFFFFFFFFFFFFFFFFFFFFFFFFFFF AND PUSH1 0x2 SLOAD PUSH32 0xB2CCA1719AD611D325136B9C9A4357F412D33694D93C60D4C1B6E922D524CF59 DUP6 DUP6 DUP6 TIMESTAMP PUSH2 0x511 SWAP2 SWAP1 PUSH2 0xB40 JUMP JUMPDEST PUSH1 0x40 MLOAD PUSH2 0x520 SWAP4 SWAP3 SWAP2 SWAP1 PUSH2 0xB74 JUMP JUMPDEST PUSH1 0x40 MLOAD DUP1 SWAP2 SUB SWAP1 LOG3 PUSH1 0x2 PUSH1 0x0 DUP2 SLOAD DUP1 SWAP3 SWAP2 SWAP1 PUSH2 0x53B SWAP1 PUSH2 0xBAB JUMP JUMPDEST SWAP2 SWAP1 POP SSTORE POP POP POP POP JUMP JUMPDEST PUSH1 0x0 PUSH1 0x1 PUSH1 0x0 DUP4 DUP2 MSTORE PUSH1 0x20 ADD SWAP1 DUP2 MSTORE PUSH1 0x20 ADD PUSH1 0x0 KECCAK256 SWAP1 POP DUP1 PUSH1 0x1 ADD PUSH1 0x0 SWAP1 SLOAD SWAP1 PUSH2 0x100 EXP SWAP1 DIV PUSH20 0xFFFFFFFFFFFFFFFFFFFFFFFFFFFFFFFFFFFFFFFF AND PUSH20 0xFFFFFFFFFFFFFFFFFFFFFFFFFFFFFFFFFFFFFFFF AND CALLER PUSH20 0xFFFFFFFFFFFFFFFFFFFFFFFFFFFFFFFFFFFFFFFF AND EQ PUSH2 0x5EE JUMPI PUSH1 0x40 MLOAD PUSH32 0x8C379A000000000000000000000000000000000000000000000000000000000 DUP2 MSTORE PUSH1 0x4 ADD PUSH2 0x5E5 SWAP1 PUSH2 0xC3F JUMP JUMPDEST PUSH1 0x40 MLOAD DUP1 SWAP2 SUB SWAP1 REVERT JUMPDEST DUP1 PUSH1 0x4 ADD PUSH1 0x0 SWAP1 SLOAD SWAP1 PUSH2 0x100 EXP SWAP1 DIV PUSH1 0xFF AND ISZERO PUSH2 0x640 JUMPI PUSH1 0x40 MLOAD PUSH32 0x8C379A000000000000000000000000000000000000000000000000000000000 DUP2 MSTORE PUSH1 0x4 ADD PUSH2 0x637 SWAP1 PUSH2 0xCAB JUMP JUMPDEST PUSH1 0x40 MLOAD DUP1 SWAP2 SUB SWAP1 REVERT JUMPDEST DUP1 PUSH1 0x2 ADD SLOAD DUP2 PUSH1 0x0 ADD SLOAD PUSH2 0x654 SWAP2 SWAP1 PUSH2 0xB40 JUMP JUMPDEST CALLVALUE EQ PUSH2 0x695 JUMPI PUSH1 0x40 MLOAD PUSH32 0x8C379A000000000000000000000000000000000000000000000000000000000 DUP2 MSTORE PUSH1 0x4 ADD PUSH2 0x68C SWAP1 PUSH2 0xD17 JUMP JUMPDEST PUSH1 0x40 MLOAD DUP1 SWAP2 SUB SWAP1 REVERT JUMPDEST PUSH1 0x1 DUP2 PUSH1 0x4 ADD PUSH1 0x0 PUSH2 0x100 EXP DUP2 SLOAD DUP2 PUSH1 0xFF MUL NOT AND SWAP1 DUP4 ISZERO ISZERO MUL OR SWAP1 SSTORE POP DUP1 PUSH1 0x2 ADD SLOAD PUSH1 0x0 DUP1 ADDRESS PUSH20 0xFFFFFFFFFFFFFFFFFFFFFFFFFFFFFFFFFFFFFFFF AND PUSH20 0xFFFFFFFFFFFFFFFFFFFFFFFFFFFFFFFFFFFFFFFF AND DUP2 MSTORE PUSH1 0x20 ADD SWAP1 DUP2 MSTORE PUSH1 0x20 ADD PUSH1 0x0 KECCAK256 PUSH1 0x0 DUP3 DUP3 SLOAD PUSH2 0x704 SWAP2 SWAP1 PUSH2 0xB40 JUMP JUMPDEST SWAP3 POP POP DUP2 SWAP1 SSTORE POP CALLER PUSH20 0xFFFFFFFFFFFFFFFFFFFFFFFFFFFFFFFFFFFFFFFF AND DUP3 PUSH32 0xE69D7686A8BC68278B8C5419579F91716B3EF2AC2FAC0D8CF80B8011F8F458A4 PUSH1 0x40 MLOAD PUSH1 0x40 MLOAD DUP1 SWAP2 SUB SWAP1 LOG3 POP POP JUMP JUMPDEST CALLVALUE PUSH1 0x0 DUP1 CALLER PUSH20 0xFFFFFFFFFFFFFFFFFFFFFFFFFFFFFFFFFFFFFFFF AND PUSH20 0xFFFFFFFFFFFFFFFFFFFFFFFFFFFFFFFFFFFFFFFF AND DUP2 MSTORE PUSH1 0x20 ADD SWAP1 DUP2 MSTORE PUSH1 0x20 ADD PUSH1 0x0 KECCAK256 PUSH1 0x0 DUP3 DUP3 SLOAD PUSH2 0x7A1 SWAP2 SWAP1 PUSH2 0xB40 JUMP JUMPDEST SWAP3 POP POP DUP2 SWAP1 SSTORE POP CALLER PUSH20 0xFFFFFFFFFFFFFFFFFFFFFFFFFFFFFFFFFFFFFFFF AND PUSH32 0xE1FFFCC4923D04B559F4D29A8BFC6CDA04EB5B0D3C460751C2402C5C5CC9109C CALLVALUE PUSH1 0x40 MLOAD PUSH2 0x7EE SWAP2 SWAP1 PUSH2 0x8EA JUMP JUMPDEST PUSH1 0x40 MLOAD DUP1 SWAP2 SUB SWAP1 LOG2 JUMP JUMPDEST PUSH1 0x1 PUSH1 0x20 MSTORE DUP1 PUSH1 0x0 MSTORE PUSH1 0x40 PUSH1 0x0 KECCAK256 PUSH1 0x0 SWAP2 POP SWAP1 POP DUP1 PUSH1 0x0 ADD SLOAD SWAP1 DUP1 PUSH1 0x1 ADD PUSH1 0x0 SWAP1 SLOAD SWAP1 PUSH2 0x100 EXP SWAP1 DIV PUSH20 0xFFFFFFFFFFFFFFFFFFFFFFFFFFFFFFFFFFFFFFFF AND SWAP1 DUP1 PUSH1 0x2 ADD SLOAD SWAP1 DUP1 PUSH1 0x3 ADD SLOAD SWAP1 DUP1 PUSH1 0x4 ADD PUSH1 0x0 SWAP1 SLOAD SWAP1 PUSH2 0x100 EXP SWAP1 DIV PUSH1 0xFF AND SWAP1 POP DUP6 JUMP JUMPDEST PUSH1 0x0 PUSH1 0x20 MSTORE DUP1 PUSH1 0x0 MSTORE PUSH1 0x40 PUSH1 0x0 KECCAK256 PUSH1 0x0 SWAP2 POP SWAP1 POP SLOAD DUP2 JUMP JUMPDEST PUSH1 0x0 DUP1 REVERT JUMPDEST PUSH1 0x0 DUP2 SWAP1 POP SWAP2 SWAP1 POP JUMP JUMPDEST PUSH2 0x88B DUP2 PUSH2 0x878 JUMP JUMPDEST DUP2 EQ PUSH2 0x896 JUMPI PUSH1 0x0 DUP1 REVERT JUMPDEST POP JUMP JUMPDEST PUSH1 0x0 DUP2 CALLDATALOAD SWAP1 POP PUSH2 0x8A8 DUP2 PUSH2 0x882 JUMP JUMPDEST SWAP3 SWAP2 POP POP JUMP JUMPDEST PUSH1 0x0 PUSH1 0x20 DUP3 DUP5 SUB SLT ISZERO PUSH2 0x8C4 JUMPI PUSH2 0x8C3 PUSH2 0x873 JUMP JUMPDEST JUMPDEST PUSH1 0x0 PUSH2 0x8D2 DUP5 DUP3 DUP6 ADD PUSH2 0x899 JUMP JUMPDEST SWAP2 POP POP SWAP3 SWAP2 POP POP JUMP JUMPDEST PUSH2 0x8E4 DUP2 PUSH2 0x878 JUMP JUMPDEST DUP3 MSTORE POP POP JUMP JUMPDEST PUSH1 0x0 PUSH1 0x20 DUP3 ADD SWAP1 POP PUSH2 0x8FF PUSH1 0x0 DUP4 ADD DUP5 PUSH2 0x8DB JUMP JUMPDEST SWAP3 SWAP2 POP POP JUMP JUMPDEST PUSH1 0x0 DUP1 PUSH1 0x0 PUSH1 0x60 DUP5 DUP7 SUB SLT ISZERO PUSH2 0x91E JUMPI PUSH2 0x91D PUSH2 0x873 JUMP JUMPDEST JUMPDEST PUSH1 0x0 PUSH2 0x92C DUP7 DUP3 DUP8 ADD PUSH2 0x899 JUMP JUMPDEST SWAP4 POP POP PUSH1 0x20 PUSH2 0x93D DUP7 DUP3 DUP8 ADD PUSH2 0x899 JUMP JUMPDEST SWAP3 POP POP PUSH1 0x40 PUSH2 0x94E DUP7 DUP3 DUP8 ADD PUSH2 0x899 JUMP JUMPDEST SWAP2 POP POP SWAP3 POP SWAP3 POP SWAP3 JUMP JUMPDEST PUSH1 0x0 PUSH20 0xFFFFFFFFFFFFFFFFFFFFFFFFFFFFFFFFFFFFFFFF DUP3 AND SWAP1 POP SWAP2 SWAP1 POP JUMP JUMPDEST PUSH1 0x0 PUSH2 0x983 DUP3 PUSH2 0x958 JUMP JUMPDEST SWAP1 POP SWAP2 SWAP1 POP JUMP JUMPDEST PUSH2 0x993 DUP2 PUSH2 0x978 JUMP JUMPDEST DUP3 MSTORE POP POP JUMP JUMPDEST PUSH1 0x0 DUP2 ISZERO ISZERO SWAP1 POP SWAP2 SWAP1 POP JUMP JUMPDEST PUSH2 0x9AE DUP2 PUSH2 0x999 JUMP JUMPDEST DUP3 MSTORE POP POP JUMP JUMPDEST PUSH1 0x0 PUSH1 0xA0 DUP3 ADD SWAP1 POP PUSH2 0x9C9 PUSH1 0x0 DUP4 ADD DUP9 PUSH2 0x8DB JUMP JUMPDEST PUSH2 0x9D6 PUSH1 0x20 DUP4 ADD DUP8 PUSH2 0x98A JUMP JUMPDEST PUSH2 0x9E3 PUSH1 0x40 DUP4 ADD DUP7 PUSH2 0x8DB JUMP JUMPDEST PUSH2 0x9F0 PUSH1 0x60 DUP4 ADD DUP6 PUSH2 0x8DB JUMP JUMPDEST PUSH2 0x9FD PUSH1 0x80 DUP4 ADD DUP5 PUSH2 0x9A5 JUMP JUMPDEST SWAP7 SWAP6 POP POP POP POP POP POP JUMP JUMPDEST PUSH2 0xA10 DUP2 PUSH2 0x978 JUMP JUMPDEST DUP2 EQ PUSH2 0xA1B JUMPI PUSH1 0x0 DUP1 REVERT JUMPDEST POP JUMP JUMPDEST PUSH1 0x0 DUP2 CALLDATALOAD SWAP1 POP PUSH2 0xA2D DUP2 PUSH2 0xA07 JUMP JUMPDEST SWAP3 SWAP2 POP POP JUMP JUMPDEST PUSH1 0x0 PUSH1 0x20 DUP3 DUP5 SUB SLT ISZERO PUSH2 0xA49 JUMPI PUSH2 0xA48 PUSH2 0x873 JUMP JUMPDEST JUMPDEST PUSH1 0x0 PUSH2 0xA57 DUP5 DUP3 DUP6 ADD PUSH2 0xA1E JUMP JUMPDEST SWAP2 POP POP SWAP3 SWAP2 POP POP JUMP JUMPDEST PUSH1 0x0 DUP3 DUP3 MSTORE PUSH1 0x20 DUP3 ADD SWAP1 POP SWAP3 SWAP2 POP POP JUMP JUMPDEST PUSH32 0x496E73756666696369656E742062616C616E6365000000000000000000000000 PUSH1 0x0 DUP3 ADD MSTORE POP JUMP JUMPDEST PUSH1 0x0 PUSH2 0xAA7 PUSH1 0x14 DUP4 PUSH2 0xA60 JUMP JUMPDEST SWAP2 POP PUSH2 0xAB2 DUP3 PUSH2 0xA71 JUMP JUMPDEST PUSH1 0x20 DUP3 ADD SWAP1 POP SWAP2 SWAP1 POP JUMP JUMPDEST PUSH1 0x0 PUSH1 0x20 DUP3 ADD SWAP1 POP DUP2 DUP2 SUB PUSH1 0x0 DUP4 ADD MSTORE PUSH2 0xAD6 DUP2 PUSH2 0xA9A JUMP JUMPDEST SWAP1 POP SWAP2 SWAP1 POP JUMP JUMPDEST PUSH32 0x4E487B7100000000000000000000000000000000000000000000000000000000 PUSH1 0x0 MSTORE PUSH1 0x11 PUSH1 0x4 MSTORE PUSH1 0x24 PUSH1 0x0 REVERT JUMPDEST PUSH1 0x0 PUSH2 0xB17 DUP3 PUSH2 0x878 JUMP JUMPDEST SWAP2 POP PUSH2 0xB22 DUP4 PUSH2 0x878 JUMP JUMPDEST SWAP3 POP DUP3 DUP3 SUB SWAP1 POP DUP2 DUP2 GT ISZERO PUSH2 0xB3A JUMPI PUSH2 0xB39 PUSH2 0xADD JUMP JUMPDEST JUMPDEST SWAP3 SWAP2 POP POP JUMP JUMPDEST PUSH1 0x0 PUSH2 0xB4B DUP3 PUSH2 0x878 JUMP JUMPDEST SWAP2 POP PUSH2 0xB56 DUP4 PUSH2 0x878 JUMP JUMPDEST SWAP3 POP DUP3 DUP3 ADD SWAP1 POP DUP1 DUP3 GT ISZERO PUSH2 0xB6E JUMPI PUSH2 0xB6D PUSH2 0xADD JUMP JUMPDEST JUMPDEST SWAP3 SWAP2 POP POP JUMP JUMPDEST PUSH1 0x0 PUSH1 0x60 DUP3 ADD SWAP1 POP PUSH2 0xB89 PUSH1 0x0 DUP4 ADD DUP7 PUSH2 0x8DB JUMP JUMPDEST PUSH2 0xB96 PUSH1 0x20 DUP4 ADD DUP6 PUSH2 0x8DB JUMP JUMPDEST PUSH2 0xBA3 PUSH1 0x40 DUP4 ADD DUP5 PUSH2 0x8DB JUMP JUMPDEST SWAP5 SWAP4 POP POP POP POP JUMP JUMPDEST PUSH1 0x0 PUSH2 0xBB6 DUP3 PUSH2 0x878 JUMP JUMPDEST SWAP2 POP PUSH32 0xFFFFFFFFFFFFFFFFFFFFFFFFFFFFFFFFFFFFFFFFFFFFFFFFFFFFFFFFFFFFFFFF DUP3 SUB PUSH2 0xBE8 JUMPI PUSH2 0xBE7 PUSH2 0xADD JUMP JUMPDEST JUMPDEST PUSH1 0x1 DUP3 ADD SWAP1 POP SWAP2 SWAP1 POP JUMP JUMPDEST PUSH32 0x4E6F742074686520626F72726F77657200000000000000000000000000000000 PUSH1 0x0 DUP3 ADD MSTORE POP JUMP JUMPDEST PUSH1 0x0 PUSH2 0xC29 PUSH1 0x10 DUP4 PUSH2 0xA60 JUMP JUMPDEST SWAP2 POP PUSH2 0xC34 DUP3 PUSH2 0xBF3 JUMP JUMPDEST PUSH1 0x20 DUP3 ADD SWAP1 POP SWAP2 SWAP1 POP JUMP JUMPDEST PUSH1 0x0 PUSH1 0x20 DUP3 ADD SWAP1 POP DUP2 DUP2 SUB PUSH1 0x0 DUP4 ADD MSTORE PUSH2 0xC58 DUP2 PUSH2 0xC1C JUMP JUMPDEST SWAP1 POP SWAP2 SWAP1 POP JUMP JUMPDEST PUSH32 0x4C6F616E20616C72656164792072657061696400000000000000000000000000 PUSH1 0x0 DUP3 ADD MSTORE POP JUMP JUMPDEST PUSH1 0x0 PUSH2 0xC95 PUSH1 0x13 DUP4 PUSH2 0xA60 JUMP JUMPDEST SWAP2 POP PUSH2 0xCA0 DUP3 PUSH2 0xC5F JUMP JUMPDEST PUSH1 0x20 DUP3 ADD SWAP1 POP SWAP2 SWAP1 POP JUMP JUMPDEST PUSH1 0x0 PUSH1 0x20 DUP3 ADD SWAP1 POP DUP2 DUP2 SUB PUSH1 0x0 DUP4 ADD MSTORE PUSH2 0xCC4 DUP2 PUSH2 0xC88 JUMP JUMPDEST SWAP1 POP SWAP2 SWAP1 POP JUMP JUMPDEST PUSH32 0x496E636F72726563742072657061796D656E7420616D6F756E74000000000000 PUSH1 0x0 DUP3 ADD MSTORE POP JUMP JUMPDEST PUSH1 0x0 PUSH2 0xD01 PUSH1 0x1A DUP4 PUSH2 0xA60 JUMP JUMPDEST SWAP2 POP PUSH2 0xD0C DUP3 PUSH2 0xCCB JUMP JUMPDEST PUSH1 0x20 DUP3 ADD SWAP1 POP SWAP2 SWAP1 POP JUMP JUMPDEST PUSH1 0x0 PUSH1 0x20 DUP3 ADD SWAP1 POP DUP2 DUP2 SUB PUSH1 0x0 DUP4 ADD MSTORE PUSH2 0xD30 DUP2 PUSH2 0xCF4 JUMP JUMPDEST SWAP1 POP SWAP2 SWAP1 POP JUMP INVALID LOG2 PUSH5 0x6970667358 0x22 SLT KECCAK256 0xB5 0xDF LOG4 DUP1 SWAP3 DUP14 0x2C SWAP9 0xDA SMOD DUP13 SWAP1 0xE 0xDD PUSH11 0x3BF0C7E31016BDFB79693D 0xD3 0xEA 0x1F SWAP4 EQ 0x26 PUSH5 0x736F6C6343 STOP ADDMOD SLT STOP CALLER "
				},
				"gasEstimates": {
					"creation": {
						"codeDepositCost": "687400",
						"executionCost": "721",
						"totalCost": "688121"
					},
					"external": {
						"createLoan(uint256,uint256,uint256)": "infinite",
						"deposit()": "infinite",
						"deposits(address)": "2880",
						"loanCounter()": "2452",
						"loans(uint256)": "infinite",
						"repayLoan(uint256)": "infinite",
						"withdraw(uint256)": "infinite"
					}
				},
				"methodIdentifiers": {
					"createLoan(uint256,uint256,uint256)": "904b513b",
					"deposit()": "d0e30db0",
					"deposits(address)": "fc7e286d",
					"loanCounter()": "34d9289e",
					"loans(uint256)": "e1ec3c68",
					"repayLoan(uint256)": "ab7b1c89",
					"withdraw(uint256)": "2e1a7d4d"
				}
			},
			"storageLayout": {
				"storage": [
					{
						"astId": 16,
						"contract": "defi/contracts/DeFiLending.sol:DeFiLending",
						"label": "deposits",
						"offset": 0,
						"slot": "0",
						"type": "t_mapping(t_address,t_uint256)"
					},
					{
						"astId": 21,
						"contract": "defi/contracts/DeFiLending.sol:DeFiLending",
						"label": "loans",
						"offset": 0,
						"slot": "1",
						"type": "t_mapping(t_uint256,t_struct(Loan)12_storage)"
					},
					{
						"astId": 23,
						"contract": "defi/contracts/DeFiLending.sol:DeFiLending",
						"label": "loanCounter",
						"offset": 0,
						"slot": "2",
						"type": "t_uint256"
					}
				],
				"types": {
					"t_address": {
						"encoding": "inplace",
						"label": "address",
						"numberOfBytes": "20"
					},
					"t_bool": {
						"encoding": "inplace",
						"label": "bool",
						"numberOfBytes": "1"
					},
					"t_mapping(t_address,t_uint256)": {
						"encoding": "mapping",
						"key": "t_address",
						"label": "mapping(address => uint256)",
						"numberOfBytes": "32",
						"value": "t_uint256"
					},
					"t_mapping(t_uint256,t_struct(Loan)12_storage)": {
						"encoding": "mapping",
						"key": "t_uint256",
						"label": "mapping(uint256 => struct DeFiLending.Loan)",
						"numberOfBytes": "32",
						"value": "t_struct(Loan)12_storage"
					},
					"t_struct(Loan)12_storage": {
						"encoding": "inplace",
						"label": "struct DeFiLending.Loan",
						"members": [
							{
								"astId": 3,
								"contract": "defi/contracts/DeFiLending.sol:DeFiLending",
								"label": "amount",
								"offset": 0,
								"slot": "0",
								"type": "t_uint256"
							},
							{
								"astId": 5,
								"contract": "defi/contracts/DeFiLending.sol:DeFiLending",
								"label": "borrower",
								"offset": 0,
								"slot": "1",
								"type": "t_address"
							},
							{
								"astId": 7,
								"contract": "defi/contracts/DeFiLending.sol:DeFiLending",
								"label": "interest",
								"offset": 0,
								"slot": "2",
								"type": "t_uint256"
							},
							{
								"astId": 9,
								"contract": "defi/contracts/DeFiLending.sol:DeFiLending",
								"label": "dueDate",
								"offset": 0,
								"slot": "3",
								"type": "t_uint256"
							},
							{
								"astId": 11,
								"contract": "defi/contracts/DeFiLending.sol:DeFiLending",
								"label": "repaid",
								"offset": 0,
								"slot": "4",
								"type": "t_bool"
							}
						],
						"numberOfBytes": "160"
					},
					"t_uint256": {
						"encoding": "inplace",
						"label": "uint256",
						"numberOfBytes": "32"
					}
				}
			},
			"userdoc": {
				"kind": "user",
				"methods": {},
				"version": 1
			}
		}
	}
}